{
  "_format": "hh-sol-artifact-1",
  "contractName": "LandLicenseRegistry",
  "sourceName": "contracts/LandLicenseRegistry.sol",
  "abi": [
    {
      "inputs": [
        {
          "internalType": "contract AccessManager",
          "name": "_accessManager",
          "type": "address"
        }
      ],
      "stateMutability": "nonpayable",
      "type": "constructor"
    },
    {
      "anonymous": false,
      "inputs": [
        {
          "indexed": false,
          "internalType": "string",
          "name": "licenseId",
          "type": "string"
        },
        {
          "indexed": false,
          "internalType": "address",
          "name": "owner",
          "type": "address"
        },
        {
          "indexed": false,
          "internalType": "enum LandLicenseRegistry.State",
          "name": "state",
          "type": "uint8"
        }
      ],
      "name": "Activate",
      "type": "event"
    },
    {
      "anonymous": false,
      "inputs": [
        {
          "indexed": false,
          "internalType": "string",
          "name": "licenseId",
          "type": "string"
        },
        {
          "indexed": true,
          "internalType": "address",
          "name": "owner",
          "type": "address"
        },
        {
          "indexed": false,
          "internalType": "address",
          "name": "notary",
          "type": "address"
        }
      ],
      "name": "LandLicenseRegistered",
      "type": "event"
    },
    {
      "anonymous": false,
      "inputs": [
        {
          "indexed": false,
          "internalType": "string",
          "name": "licenseId",
          "type": "string"
        },
        {
          "indexed": false,
          "internalType": "address",
          "name": "oldOwner",
          "type": "address"
        },
        {
          "indexed": false,
          "internalType": "address",
          "name": "newOwner",
          "type": "address"
        }
      ],
      "name": "Transfer",
      "type": "event"
    },
    {
      "inputs": [],
      "name": "LandLicenseCount",
      "outputs": [
        {
          "internalType": "uint256",
          "name": "",
          "type": "uint256"
        }
      ],
      "stateMutability": "view",
      "type": "function"
    },
    {
      "inputs": [],
      "name": "accessManager",
      "outputs": [
        {
          "internalType": "contract AccessManager",
          "name": "",
          "type": "address"
        }
      ],
      "stateMutability": "view",
      "type": "function"
    },
    {
      "inputs": [
        {
          "internalType": "string",
          "name": "_Id",
          "type": "string"
        }
      ],
      "name": "activate",
      "outputs": [],
      "stateMutability": "nonpayable",
      "type": "function"
    },
    {
      "inputs": [
        {
          "internalType": "string",
          "name": "_id",
          "type": "string"
        }
      ],
      "name": "getOwnerApproved",
      "outputs": [
        {
          "internalType": "address[]",
          "name": "",
          "type": "address[]"
        }
      ],
      "stateMutability": "view",
      "type": "function"
    },
    {
      "inputs": [
        {
          "internalType": "string",
          "name": "_id",
          "type": "string"
        }
      ],
      "name": "getOwnersOf",
      "outputs": [
        {
          "internalType": "address[]",
          "name": "",
          "type": "address[]"
        }
      ],
      "stateMutability": "view",
      "type": "function"
    },
    {
      "inputs": [
        {
          "internalType": "string",
          "name": "_licenseId",
          "type": "string"
        }
      ],
      "name": "getOwnersOfCert",
      "outputs": [
        {
          "internalType": "address[]",
          "name": "",
          "type": "address[]"
        }
      ],
      "stateMutability": "view",
      "type": "function"
    },
    {
      "inputs": [
        {
          "internalType": "string",
          "name": "_licenseId",
          "type": "string"
        }
      ],
      "name": "getRepresentativeOfOwners",
      "outputs": [
        {
          "internalType": "address",
          "name": "",
          "type": "address"
        }
      ],
      "stateMutability": "view",
      "type": "function"
    },
    {
      "inputs": [
        {
          "internalType": "string",
          "name": "_licenseId",
          "type": "string"
        }
      ],
      "name": "getStateOfCert",
      "outputs": [
        {
          "internalType": "enum LandLicenseRegistry.State",
          "name": "",
          "type": "uint8"
        }
      ],
      "stateMutability": "view",
      "type": "function"
    },
    {
      "inputs": [],
      "name": "getUserLandLicenses",
      "outputs": [
        {
          "internalType": "string[]",
          "name": "",
          "type": "string[]"
        }
      ],
      "stateMutability": "view",
      "type": "function"
    },
    {
      "inputs": [
        {
          "internalType": "string",
          "name": "_id",
          "type": "string"
        }
      ],
      "name": "isActivated",
      "outputs": [
        {
          "internalType": "bool",
          "name": "",
          "type": "bool"
        }
      ],
      "stateMutability": "view",
      "type": "function"
    },
    {
      "inputs": [
        {
          "internalType": "string",
          "name": "",
          "type": "string"
        }
      ],
      "name": "landLicenses",
      "outputs": [
        {
          "internalType": "address",
          "name": "owner",
          "type": "address"
        },
        {
          "internalType": "string",
          "name": "ipfsHash",
          "type": "string"
        },
        {
          "internalType": "address",
          "name": "notary",
          "type": "address"
        }
      ],
      "stateMutability": "view",
      "type": "function"
    },
    {
      "inputs": [
        {
          "internalType": "string",
          "name": "",
          "type": "string"
        }
      ],
      "name": "licenseExists",
      "outputs": [
        {
          "internalType": "bool",
          "name": "",
          "type": "bool"
        }
      ],
      "stateMutability": "view",
      "type": "function"
    },
    {
      "inputs": [
        {
          "internalType": "address",
          "name": "_owner",
          "type": "address"
        },
        {
          "internalType": "string",
          "name": "_licenseId",
          "type": "string"
        },
        {
          "internalType": "string",
          "name": "_ipfsHash",
          "type": "string"
        },
        {
          "internalType": "address",
          "name": "_notary",
          "type": "address"
        }
      ],
      "name": "registerLandLicense",
      "outputs": [],
      "stateMutability": "nonpayable",
      "type": "function"
    },
    {
      "inputs": [
        {
          "internalType": "string",
          "name": "_licenseId",
          "type": "string"
        }
      ],
      "name": "setStateOfCertInTransaction",
      "outputs": [],
      "stateMutability": "nonpayable",
      "type": "function"
    },
    {
      "inputs": [
        {
          "internalType": "string",
          "name": "_licenseId",
          "type": "string"
        }
      ],
      "name": "setStateOfCertOutTransaction",
      "outputs": [],
      "stateMutability": "nonpayable",
      "type": "function"
    },
    {
      "inputs": [
        {
          "internalType": "string",
          "name": "",
          "type": "string"
        }
      ],
      "name": "tokenToNotary",
      "outputs": [
        {
          "internalType": "address",
          "name": "",
          "type": "address"
        }
      ],
      "stateMutability": "view",
      "type": "function"
    },
    {
      "inputs": [
        {
          "internalType": "string",
          "name": "",
          "type": "string"
        }
      ],
      "name": "tokenToState",
      "outputs": [
        {
          "internalType": "enum LandLicenseRegistry.State",
          "name": "",
          "type": "uint8"
        }
      ],
      "stateMutability": "view",
      "type": "function"
    },
    {
      "inputs": [
        {
          "internalType": "string",
          "name": "_licenseId",
          "type": "string"
        },
        {
          "internalType": "address",
          "name": "_newOwner",
          "type": "address"
        }
      ],
      "name": "transferLandOwnership",
      "outputs": [],
      "stateMutability": "nonpayable",
      "type": "function"
    },
    {
      "inputs": [
        {
          "internalType": "address",
          "name": "",
          "type": "address"
        },
        {
          "internalType": "uint256",
          "name": "",
          "type": "uint256"
        }
      ],
      "name": "userLandLicenses",
      "outputs": [
        {
          "internalType": "string",
          "name": "",
          "type": "string"
        }
      ],
      "stateMutability": "view",
      "type": "function"
    }
  ],
  "bytecode": "0x60806040523480156200001157600080fd5b5060405162002a9038038062002a908339818101604052810190620000379190620000fd565b80600860006101000a81548173ffffffffffffffffffffffffffffffffffffffff021916908373ffffffffffffffffffffffffffffffffffffffff160217905550506200012f565b600080fd5b600073ffffffffffffffffffffffffffffffffffffffff82169050919050565b6000620000b18262000084565b9050919050565b6000620000c582620000a4565b9050919050565b620000d781620000b8565b8114620000e357600080fd5b50565b600081519050620000f781620000cc565b92915050565b6000602082840312156200011657620001156200007f565b5b60006200012684828501620000e6565b91505092915050565b612951806200013f6000396000f3fe608060405234801561001057600080fd5b50600436106101215760003560e01c80638383d73f116100ad578063e5a2cd1a11610071578063e5a2cd1a14610352578063e9d0b66614610382578063f4443d22146103b2578063fdcb6068146103d0578063fdea486e146103ee57610121565b80638383d73f1461028657806389e7d8a6146102b6578063b860e51a146102d2578063baf5b911146102f0578063d335fe6a1461032057610121565b80632ba664bc116100f45780632ba664bc146101aa5780634c202887146101da5780634d3df38a1461020a5780635920108b1461023a5780637d8ac3881461025657610121565b80630f43a801146101265780631917ab5c14610142578063216729c11461015e57806323aff5f51461018e575b600080fd5b610140600480360381019061013b9190611843565b61041e565b005b61015c600480360381019061015791906118e2565b610938565b005b610178600480360381019061017391906118e2565b610b6f565b60405161018591906119e9565b60405180910390f35b6101a860048036038101906101a391906118e2565b610c1b565b005b6101c460048036038101906101bf91906118e2565b610c65565b6040516101d191906119e9565b60405180910390f35b6101f460048036038101906101ef91906118e2565b610d11565b6040516102019190611a1a565b60405180910390f35b610224600480360381019061021f91906118e2565b610d76565b6040516102319190611a50565b60405180910390f35b610254600480360381019061024f91906118e2565b610dd2565b005b610270600480360381019061026b91906118e2565b610e1c565b60405161027d9190611a50565b60405180910390f35b6102a0600480360381019061029b9190611aa1565b610e52565b6040516102ad9190611b60565b60405180910390f35b6102d060048036038101906102cb9190611b82565b610f0b565b005b6102da61120c565b6040516102e79190611bed565b60405180910390f35b61030a600480360381019061030591906118e2565b611212565b6040516103179190611c7f565b60405180910390f35b61033a600480360381019061033591906118e2565b6112b2565b60405161034993929190611c9a565b60405180910390f35b61036c600480360381019061036791906118e2565b6113ba565b6040516103799190611c7f565b60405180910390f35b61039c600480360381019061039791906118e2565b6113f0565b6040516103a991906119e9565b60405180910390f35b6103ba61149c565b6040516103c79190611de4565b60405180910390f35b6103d86115b2565b6040516103e59190611e65565b60405180910390f35b610408600480360381019061040391906118e2565b6115d8565b6040516104159190611a1a565b60405180910390f35b600860009054906101000a900473ffffffffffffffffffffffffffffffffffffffff1673ffffffffffffffffffffffffffffffffffffffff16630ed41581336040518263ffffffff1660e01b81526004016104799190611a1a565b602060405180830381865afa158015610496573d6000803e3d6000fd5b505050506040513d601f19601f820116820180604052508101906104ba9190611eac565b6104f9576040517f08c379a00000000000000000000000000000000000000000000000000000000081526004016104f090611f25565b60405180910390fd5b600073ffffffffffffffffffffffffffffffffffffffff168473ffffffffffffffffffffffffffffffffffffffff1603610568576040517f08c379a000000000000000000000000000000000000000000000000000000000815260040161055f90611f91565b60405180910390fd5b8073ffffffffffffffffffffffffffffffffffffffff168473ffffffffffffffffffffffffffffffffffffffff16036105d6576040517f08c379a00000000000000000000000000000000000000000000000000000000081526004016105cd90612023565b60405180910390fd5b600082511161061a576040517f08c379a00000000000000000000000000000000000000000000000000000000081526004016106119061208f565b60405180910390fd5b60078360405161062a91906120eb565b908152602001604051809103902060009054906101000a900460ff1615610686576040517f08c379a000000000000000000000000000000000000000000000000000000000815260040161067d90612174565b60405180910390fd5b600060018460405161069891906120eb565b90815260200160405180910390209050848160000160006101000a81548173ffffffffffffffffffffffffffffffffffffffff021916908373ffffffffffffffffffffffffffffffffffffffff160217905550828160010190816106fc9190612396565b50818160020160006101000a81548173ffffffffffffffffffffffffffffffffffffffff021916908373ffffffffffffffffffffffffffffffffffffffff160217905550600260008673ffffffffffffffffffffffffffffffffffffffff1673ffffffffffffffffffffffffffffffffffffffff168152602001908152602001600020849080600181540180825580915050600190039060005260206000200160009091909190915090816107b19190612396565b506107c8600160005461162190919063ffffffff16565b6000819055506003846040516107de91906120eb565b9081526020016040518091039020859080600181540180825580915050600190039060005260206000200160009091909190916101000a81548173ffffffffffffffffffffffffffffffffffffffff021916908373ffffffffffffffffffffffffffffffffffffffff1602179055503360068560405161085e91906120eb565b908152602001604051809103902060006101000a81548173ffffffffffffffffffffffffffffffffffffffff021916908373ffffffffffffffffffffffffffffffffffffffff16021790555060016007856040516108bc91906120eb565b908152602001604051809103902060006101000a81548160ff0219169083151502179055508473ffffffffffffffffffffffffffffffffffffffff167feb9cb2233b170f3abddda19cb70a2400aa45da4e0d96cf6070f542ab58d19a458584604051610929929190612468565b60405180910390a25050505050565b806000600281111561094d5761094c611c08565b5b60058260405161095d91906120eb565b908152602001604051809103902060009054906101000a900460ff16600281111561098b5761098a611c08565b5b146109cb576040517f08c379a00000000000000000000000000000000000000000000000000000000081526004016109c29061250a565b60405180910390fd5b6004826040516109db91906120eb565b9081526020016040518091039020339080600181540180825580915050600190039060005260206000200160009091909190916101000a81548173ffffffffffffffffffffffffffffffffffffffff021916908373ffffffffffffffffffffffffffffffffffffffff160217905550600382604051610a5a91906120eb565b908152602001604051809103902080549050600483604051610a7c91906120eb565b90815260200160405180910390208054905003610b05576001600583604051610aa591906120eb565b908152602001604051809103902060006101000a81548160ff02191690836002811115610ad557610ad4611c08565b5b0217905550600482604051610aea91906120eb565b90815260200160405180910390206000610b04919061164d565b5b7f085661ca6b1c54732086168c623ae7f90f6fe4d8ceceb733d158e0ffc65808b48233600585604051610b3891906120eb565b908152602001604051809103902060009054906101000a900460ff16604051610b639392919061252a565b60405180910390a15050565b6060600482604051610b8191906120eb565b9081526020016040518091039020805480602002602001604051908101604052809291908181526020018280548015610c0f57602002820191906000526020600020905b8160009054906101000a900473ffffffffffffffffffffffffffffffffffffffff1673ffffffffffffffffffffffffffffffffffffffff1681526020019060010190808311610bc5575b50505050509050919050565b6002600582604051610c2d91906120eb565b908152602001604051809103902060006101000a81548160ff02191690836002811115610c5d57610c5c611c08565b5b021790555050565b6060600382604051610c7791906120eb565b9081526020016040518091039020805480602002602001604051908101604052809291908181526020018280548015610d0557602002820191906000526020600020905b8160009054906101000a900473ffffffffffffffffffffffffffffffffffffffff1673ffffffffffffffffffffffffffffffffffffffff1681526020019060010190808311610cbb575b50505050509050919050565b6000600382604051610d2391906120eb565b9081526020016040518091039020600081548110610d4457610d43612568565b5b9060005260206000200160009054906101000a900473ffffffffffffffffffffffffffffffffffffffff169050919050565b600060016002811115610d8c57610d8b611c08565b5b600583604051610d9c91906120eb565b908152602001604051809103902060009054906101000a900460ff166002811115610dca57610dc9611c08565b5b149050919050565b6001600582604051610de491906120eb565b908152602001604051809103902060006101000a81548160ff02191690836002811115610e1457610e13611c08565b5b021790555050565b6007818051602081018201805184825260208301602085012081835280955050505050506000915054906101000a900460ff1681565b60026020528160005260406000208181548110610e6e57600080fd5b90600052602060002001600091509150508054610e8a906121c3565b80601f0160208091040260200160405190810160405280929190818152602001828054610eb6906121c3565b8015610f035780601f10610ed857610100808354040283529160200191610f03565b820191906000526020600020905b815481529060010190602001808311610ee657829003601f168201915b505050505081565b81600280811115610f1f57610f1e611c08565b5b600582604051610f2f91906120eb565b908152602001604051809103902060009054906101000a900460ff166002811115610f5d57610f5c611c08565b5b14610f9d576040517f08c379a0000000000000000000000000000000000000000000000000000000008152600401610f9490612609565b60405180910390fd5b600073ffffffffffffffffffffffffffffffffffffffff168273ffffffffffffffffffffffffffffffffffffffff160361100c576040517f08c379a00000000000000000000000000000000000000000000000000000000081526004016110039061269b565b60405180910390fd5b600060018460405161101e91906120eb565b90815260200160405180910390209050600073ffffffffffffffffffffffffffffffffffffffff168160000160009054906101000a900473ffffffffffffffffffffffffffffffffffffffff1673ffffffffffffffffffffffffffffffffffffffff16036110c1576040517f08c379a00000000000000000000000000000000000000000000000000000000081526004016110b89061272d565b60405180910390fd5b60006003856040516110d391906120eb565b90815260200160405180910390209050600081805490501161112a576040517f08c379a0000000000000000000000000000000000000000000000000000000008152600401611121906127bf565b60405180910390fd5b838260000160006101000a81548173ffffffffffffffffffffffffffffffffffffffff021916908373ffffffffffffffffffffffffffffffffffffffff160217905550838160008154811061118257611181612568565b5b9060005260206000200160006101000a81548173ffffffffffffffffffffffffffffffffffffffff021916908373ffffffffffffffffffffffffffffffffffffffff1602179055507f5be0ede2d0c0c85ec164ca7244e5ae32f366bd6a32523287a378581ca2e957d58533866040516111fd939291906127df565b60405180910390a15050505050565b60005481565b600060078260405161122491906120eb565b908152602001604051809103902060009054906101000a900460ff1661127f576040517f08c379a000000000000000000000000000000000000000000000000000000000815260040161127690612869565b60405180910390fd5b60058260405161128f91906120eb565b908152602001604051809103902060009054906101000a900460ff169050919050565b6001818051602081018201805184825260208301602085012081835280955050505050506000915090508060000160009054906101000a900473ffffffffffffffffffffffffffffffffffffffff1690806001018054611311906121c3565b80601f016020809104026020016040519081016040528092919081815260200182805461133d906121c3565b801561138a5780601f1061135f5761010080835404028352916020019161138a565b820191906000526020600020905b81548152906001019060200180831161136d57829003601f168201915b5050505050908060020160009054906101000a900473ffffffffffffffffffffffffffffffffffffffff16905083565b6005818051602081018201805184825260208301602085012081835280955050505050506000915054906101000a900460ff1681565b606060038260405161140291906120eb565b908152602001604051809103902080548060200260200160405190810160405280929190818152602001828054801561149057602002820191906000526020600020905b8160009054906101000a900473ffffffffffffffffffffffffffffffffffffffff1673ffffffffffffffffffffffffffffffffffffffff1681526020019060010190808311611446575b50505050509050919050565b6060600260003373ffffffffffffffffffffffffffffffffffffffff1673ffffffffffffffffffffffffffffffffffffffff168152602001908152602001600020805480602002602001604051908101604052809291908181526020016000905b828210156115a957838290600052602060002001805461151c906121c3565b80601f0160208091040260200160405190810160405280929190818152602001828054611548906121c3565b80156115955780601f1061156a57610100808354040283529160200191611595565b820191906000526020600020905b81548152906001019060200180831161157857829003601f168201915b5050505050815260200190600101906114fd565b50505050905090565b600860009054906101000a900473ffffffffffffffffffffffffffffffffffffffff1681565b6006818051602081018201805184825260208301602085012081835280955050505050506000915054906101000a900473ffffffffffffffffffffffffffffffffffffffff1681565b600080828461163091906128b8565b905083811015611643576116426128ec565b5b8091505092915050565b508054600082559060005260206000209081019061166b919061166e565b50565b5b8082111561168757600081600090555060010161166f565b5090565b6000604051905090565b600080fd5b600080fd5b600073ffffffffffffffffffffffffffffffffffffffff82169050919050565b60006116ca8261169f565b9050919050565b6116da816116bf565b81146116e557600080fd5b50565b6000813590506116f7816116d1565b92915050565b600080fd5b600080fd5b6000601f19601f8301169050919050565b7f4e487b7100000000000000000000000000000000000000000000000000000000600052604160045260246000fd5b61175082611707565b810181811067ffffffffffffffff8211171561176f5761176e611718565b5b80604052505050565b600061178261168b565b905061178e8282611747565b919050565b600067ffffffffffffffff8211156117ae576117ad611718565b5b6117b782611707565b9050602081019050919050565b82818337600083830152505050565b60006117e66117e184611793565b611778565b90508281526020810184848401111561180257611801611702565b5b61180d8482856117c4565b509392505050565b600082601f83011261182a576118296116fd565b5b813561183a8482602086016117d3565b91505092915050565b6000806000806080858703121561185d5761185c611695565b5b600061186b878288016116e8565b945050602085013567ffffffffffffffff81111561188c5761188b61169a565b5b61189887828801611815565b935050604085013567ffffffffffffffff8111156118b9576118b861169a565b5b6118c587828801611815565b92505060606118d6878288016116e8565b91505092959194509250565b6000602082840312156118f8576118f7611695565b5b600082013567ffffffffffffffff8111156119165761191561169a565b5b61192284828501611815565b91505092915050565b600081519050919050565b600082825260208201905092915050565b6000819050602082019050919050565b611960816116bf565b82525050565b60006119728383611957565b60208301905092915050565b6000602082019050919050565b60006119968261192b565b6119a08185611936565b93506119ab83611947565b8060005b838110156119dc5781516119c38882611966565b97506119ce8361197e565b9250506001810190506119af565b5085935050505092915050565b60006020820190508181036000830152611a03818461198b565b905092915050565b611a14816116bf565b82525050565b6000602082019050611a2f6000830184611a0b565b92915050565b60008115159050919050565b611a4a81611a35565b82525050565b6000602082019050611a656000830184611a41565b92915050565b6000819050919050565b611a7e81611a6b565b8114611a8957600080fd5b50565b600081359050611a9b81611a75565b92915050565b60008060408385031215611ab857611ab7611695565b5b6000611ac6858286016116e8565b9250506020611ad785828601611a8c565b9150509250929050565b600081519050919050565b600082825260208201905092915050565b60005b83811015611b1b578082015181840152602081019050611b00565b60008484015250505050565b6000611b3282611ae1565b611b3c8185611aec565b9350611b4c818560208601611afd565b611b5581611707565b840191505092915050565b60006020820190508181036000830152611b7a8184611b27565b905092915050565b60008060408385031215611b9957611b98611695565b5b600083013567ffffffffffffffff811115611bb757611bb661169a565b5b611bc385828601611815565b9250506020611bd4858286016116e8565b9150509250929050565b611be781611a6b565b82525050565b6000602082019050611c026000830184611bde565b92915050565b7f4e487b7100000000000000000000000000000000000000000000000000000000600052602160045260246000fd5b60038110611c4857611c47611c08565b5b50565b6000819050611c5982611c37565b919050565b6000611c6982611c4b565b9050919050565b611c7981611c5e565b82525050565b6000602082019050611c946000830184611c70565b92915050565b6000606082019050611caf6000830186611a0b565b8181036020830152611cc18185611b27565b9050611cd06040830184611a0b565b949350505050565b600081519050919050565b600082825260208201905092915050565b6000819050602082019050919050565b600082825260208201905092915050565b6000611d2082611ae1565b611d2a8185611d04565b9350611d3a818560208601611afd565b611d4381611707565b840191505092915050565b6000611d5a8383611d15565b905092915050565b6000602082019050919050565b6000611d7a82611cd8565b611d848185611ce3565b935083602082028501611d9685611cf4565b8060005b85811015611dd25784840389528151611db38582611d4e565b9450611dbe83611d62565b925060208a01995050600181019050611d9a565b50829750879550505050505092915050565b60006020820190508181036000830152611dfe8184611d6f565b905092915050565b6000819050919050565b6000611e2b611e26611e218461169f565b611e06565b61169f565b9050919050565b6000611e3d82611e10565b9050919050565b6000611e4f82611e32565b9050919050565b611e5f81611e44565b82525050565b6000602082019050611e7a6000830184611e56565b92915050565b611e8981611a35565b8114611e9457600080fd5b50565b600081519050611ea681611e80565b92915050565b600060208284031215611ec257611ec1611695565b5b6000611ed084828501611e97565b91505092915050565b7f4e6f74617279207065726d697373696f6e207265717569726564000000000000600082015250565b6000611f0f601a83611aec565b9150611f1a82611ed9565b602082019050919050565b60006020820190508181036000830152611f3e81611f02565b9050919050565b7f496e76616c6964206f776e657220616464726573730000000000000000000000600082015250565b6000611f7b601583611aec565b9150611f8682611f45565b602082019050919050565b60006020820190508181036000830152611faa81611f6e565b9050919050565b7f4f776e657220616e64206e6f746172792063616e6e6f7420626520746865207360008201527f616d652061646472657373000000000000000000000000000000000000000000602082015250565b600061200d602b83611aec565b915061201882611fb1565b604082019050919050565b6000602082019050818103600083015261203c81612000565b9050919050565b7f6970667348617368206d7573742062652070726f766964656400000000000000600082015250565b6000612079601983611aec565b915061208482612043565b602082019050919050565b600060208201905081810360008301526120a88161206c565b9050919050565b600081905092915050565b60006120c582611ae1565b6120cf81856120af565b93506120df818560208601611afd565b80840191505092915050565b60006120f782846120ba565b915081905092915050565b7f4c616e64206c6963656e73652077697468207468697320494420616c7265616460008201527f7920657869737473000000000000000000000000000000000000000000000000602082015250565b600061215e602883611aec565b915061216982612102565b604082019050919050565b6000602082019050818103600083015261218d81612151565b9050919050565b7f4e487b7100000000000000000000000000000000000000000000000000000000600052602260045260246000fd5b600060028204905060018216806121db57607f821691505b6020821081036121ee576121ed612194565b5b50919050565b60008190508160005260206000209050919050565b60006020601f8301049050919050565b600082821b905092915050565b6000600883026122567fffffffffffffffffffffffffffffffffffffffffffffffffffffffffffffffff82612219565b6122608683612219565b95508019841693508086168417925050509392505050565b600061229361228e61228984611a6b565b611e06565b611a6b565b9050919050565b6000819050919050565b6122ad83612278565b6122c16122b98261229a565b848454612226565b825550505050565b600090565b6122d66122c9565b6122e18184846122a4565b505050565b5b81811015612305576122fa6000826122ce565b6001810190506122e7565b5050565b601f82111561234a5761231b816121f4565b61232484612209565b81016020851015612333578190505b61234761233f85612209565b8301826122e6565b50505b505050565b600082821c905092915050565b600061236d6000198460080261234f565b1980831691505092915050565b6000612386838361235c565b9150826002028217905092915050565b61239f82611ae1565b67ffffffffffffffff8111156123b8576123b7611718565b5b6123c282546121c3565b6123cd828285612309565b600060209050601f83116001811461240057600084156123ee578287015190505b6123f8858261237a565b865550612460565b601f19841661240e866121f4565b60005b8281101561243657848901518255600182019150602085019450602081019050612411565b86831015612453578489015161244f601f89168261235c565b8355505b6001600288020188555050505b505050505050565b600060408201905081810360008301526124828185611b27565b90506124916020830184611a0b565b9392505050565b7f5265616c4573746174653a20526571756972652073746174652069732050454e60008201527f4444494e47000000000000000000000000000000000000000000000000000000602082015250565b60006124f4602583611aec565b91506124ff82612498565b604082019050919050565b60006020820190508181036000830152612523816124e7565b9050919050565b600060608201905081810360008301526125448186611b27565b90506125536020830185611a0b565b6125606040830184611c70565b949350505050565b7f4e487b7100000000000000000000000000000000000000000000000000000000600052603260045260246000fd5b7f5265616c4573746174653a205265717569726520737461746520697320694e5f60008201527f5452414e53414354494f4e000000000000000000000000000000000000000000602082015250565b60006125f3602b83611aec565b91506125fe82612597565b604082019050919050565b60006020820190508181036000830152612622816125e6565b9050919050565b7f546865206e6577206f776e657227732061646472657373206973206e6f74207660008201527f616c696400000000000000000000000000000000000000000000000000000000602082015250565b6000612685602483611aec565b915061269082612629565b604082019050919050565b600060208201905081810360008301526126b481612678565b9050919050565b7f4c616e64206c6963656e73652077697468207468697320494420646f6573206e60008201527f6f74206578697374000000000000000000000000000000000000000000000000602082015250565b6000612717602883611aec565b9150612722826126bb565b604082019050919050565b600060208201905081810360008301526127468161270a565b9050919050565b7f546865726520617265206e6f2063757272656e74206f776e657273206f66207460008201527f6865206c616e6420746f207472616e7366657200000000000000000000000000602082015250565b60006127a9603383611aec565b91506127b48261274d565b604082019050919050565b600060208201905081810360008301526127d88161279c565b9050919050565b600060608201905081810360008301526127f98186611b27565b90506128086020830185611a0b565b6128156040830184611a0b565b949350505050565b7f4c6963656e736520494420646f6573206e6f7420657869737400000000000000600082015250565b6000612853601983611aec565b915061285e8261281d565b602082019050919050565b6000602082019050818103600083015261288281612846565b9050919050565b7f4e487b7100000000000000000000000000000000000000000000000000000000600052601160045260246000fd5b60006128c382611a6b565b91506128ce83611a6b565b92508282019050808211156128e6576128e5612889565b5b92915050565b7f4e487b7100000000000000000000000000000000000000000000000000000000600052600160045260246000fdfea264697066735822122048915181ae3267beaf5631093e11f12546c270c03648229c46696b54ed8e377064736f6c63430008180033",
  "linkReferences": {},
  "deployedLinkReferences": {}
}