{
  "_format": "hh-sol-artifact-1",
  "contractName": "LandLicenseRegistry",
  "sourceName": "contracts/LandLicenseRegistry.sol",
  "abi": [
    {
      "inputs": [
        {
          "internalType": "contract AccessManager",
          "name": "_accessManager",
          "type": "address"
        }
      ],
      "stateMutability": "nonpayable",
      "type": "constructor"
    },
    {
      "anonymous": false,
      "inputs": [
        {
          "indexed": false,
          "internalType": "string",
          "name": "licenseId",
          "type": "string"
        },
        {
          "indexed": false,
          "internalType": "address",
          "name": "owner",
          "type": "address"
        },
        {
          "indexed": false,
          "internalType": "enum LandLicenseRegistry.State",
          "name": "state",
          "type": "uint8"
        }
      ],
      "name": "Activate",
      "type": "event"
    },
    {
      "anonymous": false,
      "inputs": [
        {
          "indexed": false,
          "internalType": "string",
          "name": "licenseId",
          "type": "string"
        },
        {
          "indexed": true,
          "internalType": "address",
          "name": "owner",
          "type": "address"
        },
        {
          "indexed": false,
          "internalType": "address",
          "name": "notary",
          "type": "address"
        }
      ],
      "name": "LandLicenseRegistered",
      "type": "event"
    },
    {
      "anonymous": false,
      "inputs": [
        {
          "indexed": false,
          "internalType": "string",
          "name": "licenseId",
          "type": "string"
        },
        {
          "indexed": false,
          "internalType": "address",
          "name": "oldOwner",
          "type": "address"
        },
        {
          "indexed": false,
          "internalType": "address",
          "name": "newOwner",
          "type": "address"
        }
      ],
      "name": "Transfer",
      "type": "event"
    },
    {
      "inputs": [],
      "name": "LandLicenseCount",
      "outputs": [
        {
          "internalType": "uint256",
          "name": "",
          "type": "uint256"
        }
      ],
      "stateMutability": "view",
      "type": "function"
    },
    {
      "inputs": [],
      "name": "accessManager",
      "outputs": [
        {
          "internalType": "contract AccessManager",
          "name": "",
          "type": "address"
        }
      ],
      "stateMutability": "view",
      "type": "function"
    },
    {
      "inputs": [
        {
          "internalType": "string",
          "name": "_Id",
          "type": "string"
        }
      ],
      "name": "activate",
      "outputs": [],
      "stateMutability": "nonpayable",
      "type": "function"
    },
    {
      "inputs": [
        {
          "internalType": "string",
          "name": "_id",
          "type": "string"
        }
      ],
      "name": "getOwnerApproved",
      "outputs": [
        {
          "internalType": "address[]",
          "name": "",
          "type": "address[]"
        }
      ],
      "stateMutability": "view",
      "type": "function"
    },
    {
      "inputs": [
        {
          "internalType": "string",
          "name": "_id",
          "type": "string"
        }
      ],
      "name": "getOwnersOf",
      "outputs": [
        {
          "internalType": "address[]",
          "name": "",
          "type": "address[]"
        }
      ],
      "stateMutability": "view",
      "type": "function"
    },
    {
      "inputs": [
        {
          "internalType": "string",
          "name": "_licenseId",
          "type": "string"
        }
      ],
      "name": "getOwnersOfCert",
      "outputs": [
        {
          "internalType": "address[]",
          "name": "",
          "type": "address[]"
        }
      ],
      "stateMutability": "view",
      "type": "function"
    },
    {
      "inputs": [
        {
          "internalType": "string",
          "name": "_licenseId",
          "type": "string"
        }
      ],
      "name": "getRepresentativeOfOwners",
      "outputs": [
        {
          "internalType": "address",
          "name": "",
          "type": "address"
        }
      ],
      "stateMutability": "view",
      "type": "function"
    },
    {
      "inputs": [
        {
          "internalType": "string",
          "name": "_licenseId",
          "type": "string"
        }
      ],
      "name": "getStateOfCert",
      "outputs": [
        {
          "internalType": "enum LandLicenseRegistry.State",
          "name": "",
          "type": "uint8"
        }
      ],
      "stateMutability": "view",
      "type": "function"
    },
    {
      "inputs": [],
      "name": "getUserLandLicenses",
      "outputs": [
        {
          "internalType": "string[]",
          "name": "",
          "type": "string[]"
        }
      ],
      "stateMutability": "view",
      "type": "function"
    },
    {
      "inputs": [
        {
          "internalType": "string",
          "name": "_id",
          "type": "string"
        }
      ],
      "name": "isActivated",
      "outputs": [
        {
          "internalType": "bool",
          "name": "",
          "type": "bool"
        }
      ],
      "stateMutability": "view",
      "type": "function"
    },
    {
      "inputs": [
        {
          "internalType": "string",
          "name": "",
          "type": "string"
        }
      ],
      "name": "landLicenses",
      "outputs": [
        {
          "internalType": "address",
          "name": "owner",
          "type": "address"
        },
        {
          "internalType": "string",
          "name": "ipfsHash",
          "type": "string"
        },
        {
          "internalType": "address",
          "name": "notary",
          "type": "address"
        }
      ],
      "stateMutability": "view",
      "type": "function"
    },
    {
      "inputs": [
        {
          "internalType": "string",
          "name": "",
          "type": "string"
        }
      ],
      "name": "licenseExists",
      "outputs": [
        {
          "internalType": "bool",
          "name": "",
          "type": "bool"
        }
      ],
      "stateMutability": "view",
      "type": "function"
    },
    {
      "inputs": [
        {
          "internalType": "address",
          "name": "_owner",
          "type": "address"
        },
        {
          "internalType": "string",
          "name": "_licenseId",
          "type": "string"
        },
        {
          "internalType": "string",
          "name": "_ipfsHash",
          "type": "string"
        },
        {
          "internalType": "address",
          "name": "_notary",
          "type": "address"
        }
      ],
      "name": "registerLandLicense",
      "outputs": [],
      "stateMutability": "nonpayable",
      "type": "function"
    },
    {
      "inputs": [
        {
          "internalType": "string",
          "name": "_licenseId",
          "type": "string"
        }
      ],
      "name": "setStateOfCertInTransaction",
      "outputs": [],
      "stateMutability": "nonpayable",
      "type": "function"
    },
    {
      "inputs": [
        {
          "internalType": "string",
          "name": "_licenseId",
          "type": "string"
        }
      ],
      "name": "setStateOfCertOutTransaction",
      "outputs": [],
      "stateMutability": "nonpayable",
      "type": "function"
    },
    {
      "inputs": [
        {
          "internalType": "string",
          "name": "",
          "type": "string"
        }
      ],
      "name": "tokenToNotary",
      "outputs": [
        {
          "internalType": "address",
          "name": "",
          "type": "address"
        }
      ],
      "stateMutability": "view",
      "type": "function"
    },
    {
      "inputs": [
        {
          "internalType": "string",
          "name": "",
          "type": "string"
        }
      ],
      "name": "tokenToState",
      "outputs": [
        {
          "internalType": "enum LandLicenseRegistry.State",
          "name": "",
          "type": "uint8"
        }
      ],
      "stateMutability": "view",
      "type": "function"
    },
    {
      "inputs": [
        {
          "internalType": "string",
          "name": "_licenseId",
          "type": "string"
        },
        {
          "internalType": "address",
          "name": "_newOwner",
          "type": "address"
        }
      ],
      "name": "transferLandOwnership",
      "outputs": [],
      "stateMutability": "nonpayable",
      "type": "function"
    },
    {
      "inputs": [
        {
          "internalType": "address",
          "name": "",
          "type": "address"
        },
        {
          "internalType": "uint256",
          "name": "",
          "type": "uint256"
        }
      ],
      "name": "userLandLicenses",
      "outputs": [
        {
          "internalType": "string",
          "name": "",
          "type": "string"
        }
      ],
      "stateMutability": "view",
      "type": "function"
    }
  ],
  "bytecode": "0x60806040523480156200001157600080fd5b506040516200293938038062002939833981810160405281019062000037919062000096565b80600860006101000a81548173ffffffffffffffffffffffffffffffffffffffff021916908373ffffffffffffffffffffffffffffffffffffffff1602179055505062000124565b60008151905062000090816200010a565b92915050565b600060208284031215620000a957600080fd5b6000620000b9848285016200007f565b91505092915050565b6000620000cf82620000ea565b9050919050565b6000620000e382620000c2565b9050919050565b600073ffffffffffffffffffffffffffffffffffffffff82169050919050565b6200011581620000d6565b81146200012157600080fd5b50565b61280580620001346000396000f3fe608060405234801561001057600080fd5b50600436106101215760003560e01c80638383d73f116100ad578063e5a2cd1a11610071578063e5a2cd1a14610352578063e9d0b66614610382578063f4443d22146103b2578063fdcb6068146103d0578063fdea486e146103ee57610121565b80638383d73f1461028657806389e7d8a6146102b6578063b860e51a146102d2578063baf5b911146102f0578063d335fe6a1461032057610121565b80632ba664bc116100f45780632ba664bc146101aa5780634c202887146101da5780634d3df38a1461020a5780635920108b1461023a5780637d8ac3881461025657610121565b80630f43a801146101265780631917ab5c14610142578063216729c11461015e57806323aff5f51461018e575b600080fd5b610140600480360381019061013b91906119a2565b61041e565b005b61015c60048036038101906101579190611a9a565b610957565b005b61017860048036038101906101739190611a9a565b610c01565b6040516101859190612165565b60405180910390f35b6101a860048036038101906101a39190611a9a565b610cad565b005b6101c460048036038101906101bf9190611a9a565b610d1d565b6040516101d19190612165565b60405180910390f35b6101f460048036038101906101ef9190611a9a565b610dc9565b604051610201919061210c565b60405180910390f35b610224600480360381019061021f9190611a9a565b610e54565b60405161023191906121a9565b60405180910390f35b610254600480360381019061024f9190611a9a565b610efc565b005b610270600480360381019061026b9190611a9a565b610f6c565b60405161027d91906121a9565b60405180910390f35b6102a0600480360381019061029b9190611a35565b610fa2565b6040516102ad91906121fa565b60405180910390f35b6102d060048036038101906102cb9190611adb565b61105b565b005b6102da6113d0565b6040516102e79190612428565b60405180910390f35b61030a60048036038101906103059190611a9a565b6113d6565b60405161031791906121df565b60405180910390f35b61033a60048036038101906103359190611a9a565b611476565b60405161034993929190612127565b60405180910390f35b61036c60048036038101906103679190611a9a565b61157e565b60405161037991906121df565b60405180910390f35b61039c60048036038101906103979190611a9a565b6115b4565b6040516103a99190612165565b60405180910390f35b6103ba611660565b6040516103c79190612187565b60405180910390f35b6103d8611776565b6040516103e591906121c4565b60405180910390f35b61040860048036038101906104039190611a9a565b61179c565b604051610415919061210c565b60405180910390f35b600860009054906101000a900473ffffffffffffffffffffffffffffffffffffffff1673ffffffffffffffffffffffffffffffffffffffff16630ed41581336040518263ffffffff1660e01b8152600401610479919061210c565b60206040518083038186803b15801561049157600080fd5b505afa1580156104a5573d6000803e3d6000fd5b505050506040513d601f19601f820116820180604052508101906104c99190611a71565b610508576040517f08c379a00000000000000000000000000000000000000000000000000000000081526004016104ff906123a8565b60405180910390fd5b600073ffffffffffffffffffffffffffffffffffffffff168473ffffffffffffffffffffffffffffffffffffffff161415610578576040517f08c379a000000000000000000000000000000000000000000000000000000000815260040161056f90612348565b60405180910390fd5b8073ffffffffffffffffffffffffffffffffffffffff168473ffffffffffffffffffffffffffffffffffffffff1614156105e7576040517f08c379a00000000000000000000000000000000000000000000000000000000081526004016105de90612308565b60405180910390fd5b600082511161062b576040517f08c379a0000000000000000000000000000000000000000000000000000000008152600401610622906122c8565b60405180910390fd5b60078360405161063b91906120f5565b908152602001604051809103902060009054906101000a900460ff1615610697576040517f08c379a000000000000000000000000000000000000000000000000000000000815260040161068e90612368565b60405180910390fd5b60006001846040516106a991906120f5565b90815260200160405180910390209050848160000160006101000a81548173ffffffffffffffffffffffffffffffffffffffff021916908373ffffffffffffffffffffffffffffffffffffffff16021790555082816001019080519060200190610714929190611837565b50818160020160006101000a81548173ffffffffffffffffffffffffffffffffffffffff021916908373ffffffffffffffffffffffffffffffffffffffff160217905550600260008673ffffffffffffffffffffffffffffffffffffffff1673ffffffffffffffffffffffffffffffffffffffff168152602001908152602001600020849080600181540180825580915050600190039060005260206000200160009091909190915090805190602001906107d0929190611837565b506107e760016000546117e590919063ffffffff16565b6000819055506003846040516107fd91906120f5565b9081526020016040518091039020859080600181540180825580915050600190039060005260206000200160009091909190916101000a81548173ffffffffffffffffffffffffffffffffffffffff021916908373ffffffffffffffffffffffffffffffffffffffff1602179055503360068560405161087d91906120f5565b908152602001604051809103902060006101000a81548173ffffffffffffffffffffffffffffffffffffffff021916908373ffffffffffffffffffffffffffffffffffffffff16021790555060016007856040516108db91906120f5565b908152602001604051809103902060006101000a81548160ff0219169083151502179055508473ffffffffffffffffffffffffffffffffffffffff167feb9cb2233b170f3abddda19cb70a2400aa45da4e0d96cf6070f542ab58d19a45858460405161094892919061221c565b60405180910390a25050505050565b8060006002811115610992577f4e487b7100000000000000000000000000000000000000000000000000000000600052602160045260246000fd5b6005826040516109a291906120f5565b908152602001604051809103902060009054906101000a900460ff1660028111156109f6577f4e487b7100000000000000000000000000000000000000000000000000000000600052602160045260246000fd5b14610a36576040517f08c379a0000000000000000000000000000000000000000000000000000000008152600401610a2d90612408565b60405180910390fd5b600482604051610a4691906120f5565b9081526020016040518091039020339080600181540180825580915050600190039060005260206000200160009091909190916101000a81548173ffffffffffffffffffffffffffffffffffffffff021916908373ffffffffffffffffffffffffffffffffffffffff160217905550600382604051610ac591906120f5565b908152602001604051809103902080549050600483604051610ae791906120f5565b9081526020016040518091039020805490501415610b97576001600583604051610b1191906120f5565b908152602001604051809103902060006101000a81548160ff02191690836002811115610b67577f4e487b7100000000000000000000000000000000000000000000000000000000600052602160045260246000fd5b0217905550600482604051610b7c91906120f5565b90815260200160405180910390206000610b9691906118bd565b5b7f085661ca6b1c54732086168c623ae7f90f6fe4d8ceceb733d158e0ffc65808b48233600585604051610bca91906120f5565b908152602001604051809103902060009054906101000a900460ff16604051610bf59392919061228a565b60405180910390a15050565b6060600482604051610c1391906120f5565b9081526020016040518091039020805480602002602001604051908101604052809291908181526020018280548015610ca157602002820191906000526020600020905b8160009054906101000a900473ffffffffffffffffffffffffffffffffffffffff1673ffffffffffffffffffffffffffffffffffffffff1681526020019060010190808311610c57575b50505050509050919050565b6002600582604051610cbf91906120f5565b908152602001604051809103902060006101000a81548160ff02191690836002811115610d15577f4e487b7100000000000000000000000000000000000000000000000000000000600052602160045260246000fd5b021790555050565b6060600382604051610d2f91906120f5565b9081526020016040518091039020805480602002602001604051908101604052809291908181526020018280548015610dbd57602002820191906000526020600020905b8160009054906101000a900473ffffffffffffffffffffffffffffffffffffffff1673ffffffffffffffffffffffffffffffffffffffff1681526020019060010190808311610d73575b50505050509050919050565b6000600382604051610ddb91906120f5565b9081526020016040518091039020600081548110610e22577f4e487b7100000000000000000000000000000000000000000000000000000000600052603260045260246000fd5b9060005260206000200160009054906101000a900473ffffffffffffffffffffffffffffffffffffffff169050919050565b600060016002811115610e90577f4e487b7100000000000000000000000000000000000000000000000000000000600052602160045260246000fd5b600583604051610ea091906120f5565b908152602001604051809103902060009054906101000a900460ff166002811115610ef4577f4e487b7100000000000000000000000000000000000000000000000000000000600052602160045260246000fd5b149050919050565b6001600582604051610f0e91906120f5565b908152602001604051809103902060006101000a81548160ff02191690836002811115610f64577f4e487b7100000000000000000000000000000000000000000000000000000000600052602160045260246000fd5b021790555050565b6007818051602081018201805184825260208301602085012081835280955050505050506000915054906101000a900460ff1681565b60026020528160005260406000208181548110610fbe57600080fd5b90600052602060002001600091509150508054610fda90612677565b80601f016020809104026020016040519081016040528092919081815260200182805461100690612677565b80156110535780601f1061102857610100808354040283529160200191611053565b820191906000526020600020905b81548152906001019060200180831161103657829003601f168201915b505050505081565b81600280811115611095577f4e487b7100000000000000000000000000000000000000000000000000000000600052602160045260246000fd5b6005826040516110a591906120f5565b908152602001604051809103902060009054906101000a900460ff1660028111156110f9577f4e487b7100000000000000000000000000000000000000000000000000000000600052602160045260246000fd5b14611139576040517f08c379a000000000000000000000000000000000000000000000000000000000815260040161113090612328565b60405180910390fd5b600073ffffffffffffffffffffffffffffffffffffffff168273ffffffffffffffffffffffffffffffffffffffff1614156111a9576040517f08c379a00000000000000000000000000000000000000000000000000000000081526004016111a090612388565b60405180910390fd5b60006001846040516111bb91906120f5565b90815260200160405180910390209050600073ffffffffffffffffffffffffffffffffffffffff168160000160009054906101000a900473ffffffffffffffffffffffffffffffffffffffff1673ffffffffffffffffffffffffffffffffffffffff16141561125f576040517f08c379a0000000000000000000000000000000000000000000000000000000008152600401611256906123c8565b60405180910390fd5b600060038560405161127191906120f5565b9081526020016040518091039020905060008180549050116112c8576040517f08c379a00000000000000000000000000000000000000000000000000000000081526004016112bf906122e8565b60405180910390fd5b838260000160006101000a81548173ffffffffffffffffffffffffffffffffffffffff021916908373ffffffffffffffffffffffffffffffffffffffff1602179055508381600081548110611346577f4e487b7100000000000000000000000000000000000000000000000000000000600052603260045260246000fd5b9060005260206000200160006101000a81548173ffffffffffffffffffffffffffffffffffffffff021916908373ffffffffffffffffffffffffffffffffffffffff1602179055507f5be0ede2d0c0c85ec164ca7244e5ae32f366bd6a32523287a378581ca2e957d58533866040516113c19392919061224c565b60405180910390a15050505050565b60005481565b60006007826040516113e891906120f5565b908152602001604051809103902060009054906101000a900460ff16611443576040517f08c379a000000000000000000000000000000000000000000000000000000000815260040161143a906123e8565b60405180910390fd5b60058260405161145391906120f5565b908152602001604051809103902060009054906101000a900460ff169050919050565b6001818051602081018201805184825260208301602085012081835280955050505050506000915090508060000160009054906101000a900473ffffffffffffffffffffffffffffffffffffffff16908060010180546114d590612677565b80601f016020809104026020016040519081016040528092919081815260200182805461150190612677565b801561154e5780601f106115235761010080835404028352916020019161154e565b820191906000526020600020905b81548152906001019060200180831161153157829003601f168201915b5050505050908060020160009054906101000a900473ffffffffffffffffffffffffffffffffffffffff16905083565b6005818051602081018201805184825260208301602085012081835280955050505050506000915054906101000a900460ff1681565b60606003826040516115c691906120f5565b908152602001604051809103902080548060200260200160405190810160405280929190818152602001828054801561165457602002820191906000526020600020905b8160009054906101000a900473ffffffffffffffffffffffffffffffffffffffff1673ffffffffffffffffffffffffffffffffffffffff168152602001906001019080831161160a575b50505050509050919050565b6060600260003373ffffffffffffffffffffffffffffffffffffffff1673ffffffffffffffffffffffffffffffffffffffff168152602001908152602001600020805480602002602001604051908101604052809291908181526020016000905b8282101561176d5783829060005260206000200180546116e090612677565b80601f016020809104026020016040519081016040528092919081815260200182805461170c90612677565b80156117595780601f1061172e57610100808354040283529160200191611759565b820191906000526020600020905b81548152906001019060200180831161173c57829003601f168201915b5050505050815260200190600101906116c1565b50505050905090565b600860009054906101000a900473ffffffffffffffffffffffffffffffffffffffff1681565b6006818051602081018201805184825260208301602085012081835280955050505050506000915054906101000a900473ffffffffffffffffffffffffffffffffffffffff1681565b60008082846117f4919061254e565b90508381101561182d577f4e487b7100000000000000000000000000000000000000000000000000000000600052600160045260246000fd5b8091505092915050565b82805461184390612677565b90600052602060002090601f01602090048101928261186557600085556118ac565b82601f1061187e57805160ff19168380011785556118ac565b828001600101855582156118ac579182015b828111156118ab578251825591602001919060010190611890565b5b5090506118b991906118de565b5090565b50805460008255906000526020600020908101906118db91906118de565b50565b5b808211156118f75760008160009055506001016118df565b5090565b600061190e61190984612474565b612443565b90508281526020810184848401111561192657600080fd5b611931848285612635565b509392505050565b6000813590506119488161278a565b92915050565b60008151905061195d816127a1565b92915050565b600082601f83011261197457600080fd5b81356119848482602086016118fb565b91505092915050565b60008135905061199c816127b8565b92915050565b600080600080608085870312156119b857600080fd5b60006119c687828801611939565b945050602085013567ffffffffffffffff8111156119e357600080fd5b6119ef87828801611963565b935050604085013567ffffffffffffffff811115611a0c57600080fd5b611a1887828801611963565b9250506060611a2987828801611939565b91505092959194509250565b60008060408385031215611a4857600080fd5b6000611a5685828601611939565b9250506020611a678582860161198d565b9150509250929050565b600060208284031215611a8357600080fd5b6000611a918482850161194e565b91505092915050565b600060208284031215611aac57600080fd5b600082013567ffffffffffffffff811115611ac657600080fd5b611ad284828501611963565b91505092915050565b60008060408385031215611aee57600080fd5b600083013567ffffffffffffffff811115611b0857600080fd5b611b1485828601611963565b9250506020611b2585828601611939565b9150509250929050565b6000611b3b8383611b5b565b60208301905092915050565b6000611b538383611c79565b905092915050565b611b64816125a4565b82525050565b611b73816125a4565b82525050565b6000611b84826124c4565b611b8e81856124ff565b9350611b99836124a4565b8060005b83811015611bca578151611bb18882611b2f565b9750611bbc836124e5565b925050600181019050611b9d565b5085935050505092915050565b6000611be2826124cf565b611bec8185612510565b935083602082028501611bfe856124b4565b8060005b85811015611c3a5784840389528151611c1b8582611b47565b9450611c26836124f2565b925060208a01995050600181019050611c02565b50829750879550505050505092915050565b611c55816125b6565b82525050565b611c64816125ff565b82525050565b611c7381612623565b82525050565b6000611c84826124da565b611c8e8185612521565b9350611c9e818560208601612644565b611ca781612765565b840191505092915050565b6000611cbd826124da565b611cc78185612532565b9350611cd7818560208601612644565b611ce081612765565b840191505092915050565b6000611cf6826124da565b611d008185612543565b9350611d10818560208601612644565b80840191505092915050565b6000611d29601983612532565b91507f6970667348617368206d7573742062652070726f7669646564000000000000006000830152602082019050919050565b6000611d69603383612532565b91507f546865726520617265206e6f2063757272656e74206f776e657273206f66207460008301527f6865206c616e6420746f207472616e73666572000000000000000000000000006020830152604082019050919050565b6000611dcf602b83612532565b91507f4f776e657220616e64206e6f746172792063616e6e6f7420626520746865207360008301527f616d6520616464726573730000000000000000000000000000000000000000006020830152604082019050919050565b6000611e35602b83612532565b91507f5265616c4573746174653a205265717569726520737461746520697320694e5f60008301527f5452414e53414354494f4e0000000000000000000000000000000000000000006020830152604082019050919050565b6000611e9b601583612532565b91507f496e76616c6964206f776e6572206164647265737300000000000000000000006000830152602082019050919050565b6000611edb602883612532565b91507f4c616e64206c6963656e73652077697468207468697320494420616c7265616460008301527f79206578697374730000000000000000000000000000000000000000000000006020830152604082019050919050565b6000611f41602483612532565b91507f546865206e6577206f776e657227732061646472657373206973206e6f74207660008301527f616c6964000000000000000000000000000000000000000000000000000000006020830152604082019050919050565b6000611fa7601a83612532565b91507f4e6f74617279207065726d697373696f6e2072657175697265640000000000006000830152602082019050919050565b6000611fe7602883612532565b91507f4c616e64206c6963656e73652077697468207468697320494420646f6573206e60008301527f6f742065786973740000000000000000000000000000000000000000000000006020830152604082019050919050565b600061204d601983612532565b91507f4c6963656e736520494420646f6573206e6f74206578697374000000000000006000830152602082019050919050565b600061208d602583612532565b91507f5265616c4573746174653a20526571756972652073746174652069732050454e60008301527f4444494e470000000000000000000000000000000000000000000000000000006020830152604082019050919050565b6120ef816125f5565b82525050565b60006121018284611ceb565b915081905092915050565b60006020820190506121216000830184611b6a565b92915050565b600060608201905061213c6000830186611b6a565b818103602083015261214e8185611cb2565b905061215d6040830184611b6a565b949350505050565b6000602082019050818103600083015261217f8184611b79565b905092915050565b600060208201905081810360008301526121a18184611bd7565b905092915050565b60006020820190506121be6000830184611c4c565b92915050565b60006020820190506121d96000830184611c5b565b92915050565b60006020820190506121f46000830184611c6a565b92915050565b600060208201905081810360008301526122148184611cb2565b905092915050565b600060408201905081810360008301526122368185611cb2565b90506122456020830184611b6a565b9392505050565b600060608201905081810360008301526122668186611cb2565b90506122756020830185611b6a565b6122826040830184611b6a565b949350505050565b600060608201905081810360008301526122a48186611cb2565b90506122b36020830185611b6a565b6122c06040830184611c6a565b949350505050565b600060208201905081810360008301526122e181611d1c565b9050919050565b6000602082019050818103600083015261230181611d5c565b9050919050565b6000602082019050818103600083015261232181611dc2565b9050919050565b6000602082019050818103600083015261234181611e28565b9050919050565b6000602082019050818103600083015261236181611e8e565b9050919050565b6000602082019050818103600083015261238181611ece565b9050919050565b600060208201905081810360008301526123a181611f34565b9050919050565b600060208201905081810360008301526123c181611f9a565b9050919050565b600060208201905081810360008301526123e181611fda565b9050919050565b6000602082019050818103600083015261240181612040565b9050919050565b6000602082019050818103600083015261242181612080565b9050919050565b600060208201905061243d60008301846120e6565b92915050565b6000604051905081810181811067ffffffffffffffff8211171561246a57612469612736565b5b8060405250919050565b600067ffffffffffffffff82111561248f5761248e612736565b5b601f19601f8301169050602081019050919050565b6000819050602082019050919050565b6000819050602082019050919050565b600081519050919050565b600081519050919050565b600081519050919050565b6000602082019050919050565b6000602082019050919050565b600082825260208201905092915050565b600082825260208201905092915050565b600082825260208201905092915050565b600082825260208201905092915050565b600081905092915050565b6000612559826125f5565b9150612564836125f5565b9250827fffffffffffffffffffffffffffffffffffffffffffffffffffffffffffffffff03821115612599576125986126a9565b5b828201905092915050565b60006125af826125d5565b9050919050565b60008115159050919050565b60008190506125d082612776565b919050565b600073ffffffffffffffffffffffffffffffffffffffff82169050919050565b6000819050919050565b600061260a82612611565b9050919050565b600061261c826125d5565b9050919050565b600061262e826125c2565b9050919050565b82818337600083830152505050565b60005b83811015612662578082015181840152602081019050612647565b83811115612671576000848401525b50505050565b6000600282049050600182168061268f57607f821691505b602082108114156126a3576126a2612707565b5b50919050565b7f4e487b7100000000000000000000000000000000000000000000000000000000600052601160045260246000fd5b7f4e487b7100000000000000000000000000000000000000000000000000000000600052602160045260246000fd5b7f4e487b7100000000000000000000000000000000000000000000000000000000600052602260045260246000fd5b7f4e487b7100000000000000000000000000000000000000000000000000000000600052604160045260246000fd5b6000601f19601f8301169050919050565b60038110612787576127866126d8565b5b50565b612793816125a4565b811461279e57600080fd5b50565b6127aa816125b6565b81146127b557600080fd5b50565b6127c1816125f5565b81146127cc57600080fd5b5056fea264697066735822122041fb20fa386c6752a926e5f5560060096ad4de9fcc835c457ace27141f45c9e564736f6c63430008000033",
  "linkReferences": {},
  "deployedLinkReferences": {}
}