{
  "_format": "hh-sol-artifact-1",
  "contractName": "LandLicenseRegistry",
  "sourceName": "contracts/LandLicenseRegistry.sol",
  "abi": [
    {
      "inputs": [
        {
          "internalType": "contract AccessManager",
          "name": "_accessManager",
          "type": "address"
        }
      ],
      "stateMutability": "nonpayable",
      "type": "constructor"
    },
    {
      "anonymous": false,
      "inputs": [
        {
          "indexed": false,
          "internalType": "uint256",
          "name": "licenseId",
          "type": "uint256"
        },
        {
          "indexed": true,
          "internalType": "address",
          "name": "owner",
          "type": "address"
        },
        {
          "indexed": false,
          "internalType": "string",
          "name": "landAddress",
          "type": "string"
        },
        {
          "indexed": false,
          "internalType": "uint256",
          "name": "area",
          "type": "uint256"
        }
      ],
      "name": "LandLicenseRegistered",
      "type": "event"
    },
    {
      "inputs": [],
      "name": "accessManager",
      "outputs": [
        {
          "internalType": "contract AccessManager",
          "name": "",
          "type": "address"
        }
      ],
      "stateMutability": "view",
      "type": "function"
    },
    {
      "inputs": [
        {
          "internalType": "uint256",
          "name": "_licenseId",
          "type": "uint256"
        }
      ],
      "name": "getLandLicense",
      "outputs": [
        {
          "internalType": "address",
          "name": "owner",
          "type": "address"
        },
        {
          "internalType": "string",
          "name": "landAddress",
          "type": "string"
        },
        {
          "internalType": "uint256",
          "name": "area",
          "type": "uint256"
        },
        {
          "internalType": "string",
          "name": "ipfsHash",
          "type": "string"
        }
      ],
      "stateMutability": "view",
      "type": "function"
    },
    {
      "inputs": [],
      "name": "getUserLandLicenses",
      "outputs": [
        {
          "internalType": "uint256[]",
          "name": "",
          "type": "uint256[]"
        }
      ],
      "stateMutability": "view",
      "type": "function"
    },
    {
      "inputs": [
        {
          "internalType": "uint256",
          "name": "",
          "type": "uint256"
        }
      ],
      "name": "landLicenses",
      "outputs": [
        {
          "internalType": "address",
          "name": "owner",
          "type": "address"
        },
        {
          "internalType": "string",
          "name": "landAddress",
          "type": "string"
        },
        {
          "internalType": "uint256",
          "name": "area",
          "type": "uint256"
        },
        {
          "internalType": "string",
          "name": "ipfsHash",
          "type": "string"
        }
      ],
      "stateMutability": "view",
      "type": "function"
    },
    {
      "inputs": [
        {
          "internalType": "address",
          "name": "_owner",
          "type": "address"
        },
        {
          "internalType": "uint256",
          "name": "_licenseId",
          "type": "uint256"
        },
        {
          "internalType": "string",
          "name": "_landAddress",
          "type": "string"
        },
        {
          "internalType": "uint256",
          "name": "_area",
          "type": "uint256"
        },
        {
          "internalType": "string",
          "name": "_ipfsHash",
          "type": "string"
        }
      ],
      "name": "registerLandLicense",
      "outputs": [],
      "stateMutability": "nonpayable",
      "type": "function"
    },
    {
      "inputs": [
        {
          "internalType": "address",
          "name": "",
          "type": "address"
        },
        {
          "internalType": "uint256",
          "name": "",
          "type": "uint256"
        }
      ],
      "name": "userLandLicenses",
      "outputs": [
        {
          "internalType": "uint256",
          "name": "",
          "type": "uint256"
        }
      ],
      "stateMutability": "view",
      "type": "function"
    }
  ],
  "bytecode": "0x60806040523480156200001157600080fd5b5060405162001603380380620016038339818101604052810190620000379190620000fd565b80600260006101000a81548173ffffffffffffffffffffffffffffffffffffffff021916908373ffffffffffffffffffffffffffffffffffffffff160217905550506200012f565b600080fd5b600073ffffffffffffffffffffffffffffffffffffffff82169050919050565b6000620000b18262000084565b9050919050565b6000620000c582620000a4565b9050919050565b620000d781620000b8565b8114620000e357600080fd5b50565b600081519050620000f781620000cc565b92915050565b6000602082840312156200011657620001156200007f565b5b60006200012684828501620000e6565b91505092915050565b6114c4806200013f6000396000f3fe608060405234801561001057600080fd5b50600436106100625760003560e01c806345289253146100675780637855eb521461009a5780638383d73f146100cd578063d3b14db9146100fd578063f4443d2214610119578063fdcb606814610137575b600080fd5b610081600480360381019061007c919061094b565b610155565b6040516100919493929190610a58565b60405180910390f35b6100b460048036038101906100af919061094b565b61035a565b6040516100c49493929190610a58565b60405180910390f35b6100e760048036038101906100e29190610ad7565b6104ba565b6040516100f49190610b17565b60405180910390f35b61011760048036038101906101129190610c67565b6104eb565b005b610121610846565b60405161012e9190610dd8565b60405180910390f35b61013f6108db565b60405161014c9190610e59565b60405180910390f35b600060606000606060008060008781526020019081526020016000209050600073ffffffffffffffffffffffffffffffffffffffff168160000160009054906101000a900473ffffffffffffffffffffffffffffffffffffffff1673ffffffffffffffffffffffffffffffffffffffff1603610206576040517f08c379a00000000000000000000000000000000000000000000000000000000081526004016101fd90610ec0565b60405180910390fd5b8060000160009054906101000a900473ffffffffffffffffffffffffffffffffffffffff16945080600101805461023c90610f0f565b80601f016020809104026020016040519081016040528092919081815260200182805461026890610f0f565b80156102b55780601f1061028a576101008083540402835291602001916102b5565b820191906000526020600020905b81548152906001019060200180831161029857829003601f168201915b50505050509350806002015492508060030180546102d290610f0f565b80601f01602080910402602001604051908101604052809291908181526020018280546102fe90610f0f565b801561034b5780601f106103205761010080835404028352916020019161034b565b820191906000526020600020905b81548152906001019060200180831161032e57829003601f168201915b50505050509150509193509193565b60006020528060005260406000206000915090508060000160009054906101000a900473ffffffffffffffffffffffffffffffffffffffff16908060010180546103a390610f0f565b80601f01602080910402602001604051908101604052809291908181526020018280546103cf90610f0f565b801561041c5780601f106103f15761010080835404028352916020019161041c565b820191906000526020600020905b8154815290600101906020018083116103ff57829003601f168201915b50505050509080600201549080600301805461043790610f0f565b80601f016020809104026020016040519081016040528092919081815260200182805461046390610f0f565b80156104b05780601f10610485576101008083540402835291602001916104b0565b820191906000526020600020905b81548152906001019060200180831161049357829003601f168201915b5050505050905084565b600160205281600052604060002081815481106104d657600080fd5b90600052602060002001600091509150505481565b600260009054906101000a900473ffffffffffffffffffffffffffffffffffffffff1673ffffffffffffffffffffffffffffffffffffffff16630ed41581336040518263ffffffff1660e01b81526004016105469190610f40565b602060405180830381865afa158015610563573d6000803e3d6000fd5b505050506040513d601f19601f820116820180604052508101906105879190610f93565b6105c6576040517f08c379a00000000000000000000000000000000000000000000000000000000081526004016105bd9061100c565b60405180910390fd5b600073ffffffffffffffffffffffffffffffffffffffff168573ffffffffffffffffffffffffffffffffffffffff1603610635576040517f08c379a000000000000000000000000000000000000000000000000000000000815260040161062c90611078565b60405180910390fd5b6000835111610679576040517f08c379a0000000000000000000000000000000000000000000000000000000008152600401610670906110e4565b60405180910390fd5b600082116106bc576040517f08c379a00000000000000000000000000000000000000000000000000000000081526004016106b390611150565b60405180910390fd5b6000815111610700576040517f08c379a00000000000000000000000000000000000000000000000000000000081526004016106f7906111bc565b60405180910390fd5b60008060008681526020019081526020016000209050858160000160006101000a81548173ffffffffffffffffffffffffffffffffffffffff021916908373ffffffffffffffffffffffffffffffffffffffff1602179055508381600101908161076a919061137e565b5082816002018190555081816003019081610785919061137e565b50600160008773ffffffffffffffffffffffffffffffffffffffff1673ffffffffffffffffffffffffffffffffffffffff1681526020019081526020016000208590806001815401808255809150506001900390600052602060002001600090919091909150553373ffffffffffffffffffffffffffffffffffffffff167f9ec19ea72d1d31366ca9e7fc86f40c5a00be0f14d41972ddf8df66756c1bb4f086868660405161083693929190611450565b60405180910390a2505050505050565b6060600160003373ffffffffffffffffffffffffffffffffffffffff1673ffffffffffffffffffffffffffffffffffffffff1681526020019081526020016000208054806020026020016040519081016040528092919081815260200182805480156108d157602002820191906000526020600020905b8154815260200190600101908083116108bd575b5050505050905090565b600260009054906101000a900473ffffffffffffffffffffffffffffffffffffffff1681565b6000604051905090565b600080fd5b600080fd5b6000819050919050565b61092881610915565b811461093357600080fd5b50565b6000813590506109458161091f565b92915050565b6000602082840312156109615761096061090b565b5b600061096f84828501610936565b91505092915050565b600073ffffffffffffffffffffffffffffffffffffffff82169050919050565b60006109a382610978565b9050919050565b6109b381610998565b82525050565b600081519050919050565b600082825260208201905092915050565b60005b838110156109f35780820151818401526020810190506109d8565b60008484015250505050565b6000601f19601f8301169050919050565b6000610a1b826109b9565b610a2581856109c4565b9350610a358185602086016109d5565b610a3e816109ff565b840191505092915050565b610a5281610915565b82525050565b6000608082019050610a6d60008301876109aa565b8181036020830152610a7f8186610a10565b9050610a8e6040830185610a49565b8181036060830152610aa08184610a10565b905095945050505050565b610ab481610998565b8114610abf57600080fd5b50565b600081359050610ad181610aab565b92915050565b60008060408385031215610aee57610aed61090b565b5b6000610afc85828601610ac2565b9250506020610b0d85828601610936565b9150509250929050565b6000602082019050610b2c6000830184610a49565b92915050565b600080fd5b600080fd5b7f4e487b7100000000000000000000000000000000000000000000000000000000600052604160045260246000fd5b610b74826109ff565b810181811067ffffffffffffffff82111715610b9357610b92610b3c565b5b80604052505050565b6000610ba6610901565b9050610bb28282610b6b565b919050565b600067ffffffffffffffff821115610bd257610bd1610b3c565b5b610bdb826109ff565b9050602081019050919050565b82818337600083830152505050565b6000610c0a610c0584610bb7565b610b9c565b905082815260208101848484011115610c2657610c25610b37565b5b610c31848285610be8565b509392505050565b600082601f830112610c4e57610c4d610b32565b5b8135610c5e848260208601610bf7565b91505092915050565b600080600080600060a08688031215610c8357610c8261090b565b5b6000610c9188828901610ac2565b9550506020610ca288828901610936565b945050604086013567ffffffffffffffff811115610cc357610cc2610910565b5b610ccf88828901610c39565b9350506060610ce088828901610936565b925050608086013567ffffffffffffffff811115610d0157610d00610910565b5b610d0d88828901610c39565b9150509295509295909350565b600081519050919050565b600082825260208201905092915050565b6000819050602082019050919050565b610d4f81610915565b82525050565b6000610d618383610d46565b60208301905092915050565b6000602082019050919050565b6000610d8582610d1a565b610d8f8185610d25565b9350610d9a83610d36565b8060005b83811015610dcb578151610db28882610d55565b9750610dbd83610d6d565b925050600181019050610d9e565b5085935050505092915050565b60006020820190508181036000830152610df28184610d7a565b905092915050565b6000819050919050565b6000610e1f610e1a610e1584610978565b610dfa565b610978565b9050919050565b6000610e3182610e04565b9050919050565b6000610e4382610e26565b9050919050565b610e5381610e38565b82525050565b6000602082019050610e6e6000830184610e4a565b92915050565b7f4c616e64206c6963656e7365206e6f7420666f756e6400000000000000000000600082015250565b6000610eaa6016836109c4565b9150610eb582610e74565b602082019050919050565b60006020820190508181036000830152610ed981610e9d565b9050919050565b7f4e487b7100000000000000000000000000000000000000000000000000000000600052602260045260246000fd5b60006002820490506001821680610f2757607f821691505b602082108103610f3a57610f39610ee0565b5b50919050565b6000602082019050610f5560008301846109aa565b92915050565b60008115159050919050565b610f7081610f5b565b8114610f7b57600080fd5b50565b600081519050610f8d81610f67565b92915050565b600060208284031215610fa957610fa861090b565b5b6000610fb784828501610f7e565b91505092915050565b7f4e6f74617279207065726d697373696f6e207265717569726564000000000000600082015250565b6000610ff6601a836109c4565b915061100182610fc0565b602082019050919050565b6000602082019050818103600083015261102581610fe9565b9050919050565b7f496e76616c6964206f776e657220616464726573730000000000000000000000600082015250565b60006110626015836109c4565b915061106d8261102c565b602082019050919050565b6000602082019050818103600083015261109181611055565b9050919050565b7f4c616e642061646472657373206d7573742062652070726f7669646564000000600082015250565b60006110ce601d836109c4565b91506110d982611098565b602082019050919050565b600060208201905081810360008301526110fd816110c1565b9050919050565b7f41726561206d7573742062652067726561746572207468616e20300000000000600082015250565b600061113a601b836109c4565b915061114582611104565b602082019050919050565b600060208201905081810360008301526111698161112d565b9050919050565b7f6970667348617368206d7573742062652070726f766964656400000000000000600082015250565b60006111a66019836109c4565b91506111b182611170565b602082019050919050565b600060208201905081810360008301526111d581611199565b9050919050565b60008190508160005260206000209050919050565b60006020601f8301049050919050565b600082821b905092915050565b60006008830261123e7fffffffffffffffffffffffffffffffffffffffffffffffffffffffffffffffff82611201565b6112488683611201565b95508019841693508086168417925050509392505050565b600061127b61127661127184610915565b610dfa565b610915565b9050919050565b6000819050919050565b61129583611260565b6112a96112a182611282565b84845461120e565b825550505050565b600090565b6112be6112b1565b6112c981848461128c565b505050565b5b818110156112ed576112e26000826112b6565b6001810190506112cf565b5050565b601f82111561133257611303816111dc565b61130c846111f1565b8101602085101561131b578190505b61132f611327856111f1565b8301826112ce565b50505b505050565b600082821c905092915050565b600061135560001984600802611337565b1980831691505092915050565b600061136e8383611344565b9150826002028217905092915050565b611387826109b9565b67ffffffffffffffff8111156113a05761139f610b3c565b5b6113aa8254610f0f565b6113b58282856112f1565b600060209050601f8311600181146113e857600084156113d6578287015190505b6113e08582611362565b865550611448565b601f1984166113f6866111dc565b60005b8281101561141e578489015182556001820191506020850194506020810190506113f9565b8683101561143b5784890151611437601f891682611344565b8355505b6001600288020188555050505b505050505050565b60006060820190506114656000830186610a49565b81810360208301526114778185610a10565b90506114866040830184610a49565b94935050505056fea264697066735822122073cdb830576532ebeed22bf6b22c9ceb6ee0deee96ed6fcde72fcd805b2d137164736f6c63430008180033",
  "linkReferences": {},
  "deployedLinkReferences": {}
}