{
  "_format": "hh-sol-artifact-1",
  "contractName": "TransactionContract",
  "sourceName": "contracts/TransactionContract.sol",
  "abi": [
    {
      "inputs": [
        {
          "internalType": "contract ILandLicenseRegistry",
          "name": "_LandLicenseRegistryContractAddress",
          "type": "address"
        }
      ],
      "stateMutability": "nonpayable",
      "type": "constructor"
    },
    {
      "anonymous": false,
      "inputs": [
        {
          "indexed": false,
          "internalType": "uint256",
          "name": "idTransaction",
          "type": "uint256"
        }
      ],
      "name": "DepositSigned",
      "type": "event"
    },
    {
      "anonymous": false,
      "inputs": [
        {
          "indexed": false,
          "internalType": "uint256",
          "name": "idTransaction",
          "type": "uint256"
        }
      ],
      "name": "Payment",
      "type": "event"
    },
    {
      "anonymous": false,
      "inputs": [
        {
          "indexed": false,
          "internalType": "uint256",
          "name": "idTransaction",
          "type": "uint256"
        },
        {
          "indexed": false,
          "internalType": "enum TransactionContract.State",
          "name": "state",
          "type": "uint8"
        }
      ],
      "name": "TransactionCanceled",
      "type": "event"
    },
    {
      "anonymous": false,
      "inputs": [
        {
          "indexed": false,
          "internalType": "address[]",
          "name": "buyers",
          "type": "address[]"
        },
        {
          "indexed": false,
          "internalType": "address[]",
          "name": "sellers",
          "type": "address[]"
        },
        {
          "indexed": false,
          "internalType": "uint256",
          "name": "idTransaction",
          "type": "uint256"
        },
        {
          "indexed": false,
          "internalType": "string",
          "name": "licenseId",
          "type": "string"
        },
        {
          "indexed": false,
          "internalType": "uint256",
          "name": "depositPrice",
          "type": "uint256"
        },
        {
          "indexed": false,
          "internalType": "uint256",
          "name": "transferPrice",
          "type": "uint256"
        },
        {
          "indexed": false,
          "internalType": "uint256",
          "name": "timeStart",
          "type": "uint256"
        },
        {
          "indexed": false,
          "internalType": "uint256",
          "name": "timeEnd",
          "type": "uint256"
        }
      ],
      "name": "TransactionCreated",
      "type": "event"
    },
    {
      "anonymous": false,
      "inputs": [
        {
          "indexed": false,
          "internalType": "uint256",
          "name": "idTransaction",
          "type": "uint256"
        }
      ],
      "name": "TransactionSuccess",
      "type": "event"
    },
    {
      "inputs": [
        {
          "internalType": "uint256",
          "name": "_idTransaction",
          "type": "uint256"
        }
      ],
      "name": "acceptTransaction",
      "outputs": [],
      "stateMutability": "nonpayable",
      "type": "function"
    },
    {
      "inputs": [
        {
          "internalType": "uint256",
          "name": "_idTransaction",
          "type": "uint256"
        }
      ],
      "name": "buyerCancelTransaction",
      "outputs": [],
      "stateMutability": "nonpayable",
      "type": "function"
    },
    {
      "inputs": [
        {
          "internalType": "uint256",
          "name": "_idTransaction",
          "type": "uint256"
        }
      ],
      "name": "cancelTransaction",
      "outputs": [],
      "stateMutability": "payable",
      "type": "function"
    },
    {
      "inputs": [
        {
          "internalType": "uint256",
          "name": "_idTransaction",
          "type": "uint256"
        }
      ],
      "name": "confirmTransaction",
      "outputs": [],
      "stateMutability": "payable",
      "type": "function"
    },
    {
      "inputs": [
        {
          "internalType": "address[]",
          "name": "_buyers",
          "type": "address[]"
        },
        {
          "internalType": "string",
          "name": "_licenseId",
          "type": "string"
        },
        {
          "internalType": "uint256",
          "name": "_depositPrice",
          "type": "uint256"
        },
        {
          "internalType": "uint256",
          "name": "_transferPrice",
          "type": "uint256"
        },
        {
          "internalType": "uint256",
          "name": "_depositTime",
          "type": "uint256"
        }
      ],
      "name": "createTransaction",
      "outputs": [],
      "stateMutability": "payable",
      "type": "function"
    },
    {
      "inputs": [
        {
          "internalType": "uint256",
          "name": "_idTransaction",
          "type": "uint256"
        }
      ],
      "name": "getTransaction",
      "outputs": [
        {
          "internalType": "address[]",
          "name": "",
          "type": "address[]"
        },
        {
          "internalType": "address[]",
          "name": "",
          "type": "address[]"
        },
        {
          "internalType": "string",
          "name": "",
          "type": "string"
        },
        {
          "internalType": "uint256",
          "name": "",
          "type": "uint256"
        },
        {
          "internalType": "uint256",
          "name": "",
          "type": "uint256"
        },
        {
          "internalType": "uint256",
          "name": "",
          "type": "uint256"
        },
        {
          "internalType": "uint256",
          "name": "",
          "type": "uint256"
        }
      ],
      "stateMutability": "view",
      "type": "function"
    },
    {
      "inputs": [],
      "name": "id",
      "outputs": [
        {
          "internalType": "uint256",
          "name": "",
          "type": "uint256"
        }
      ],
      "stateMutability": "view",
      "type": "function"
    },
    {
      "inputs": [
        {
          "internalType": "uint256",
          "name": "",
          "type": "uint256"
        }
      ],
      "name": "idToState",
      "outputs": [
        {
          "internalType": "enum TransactionContract.State",
          "name": "",
          "type": "uint8"
        }
      ],
      "stateMutability": "view",
      "type": "function"
    },
    {
      "inputs": [
        {
          "internalType": "uint256",
          "name": "",
          "type": "uint256"
        }
      ],
      "name": "idToTransaction",
      "outputs": [
        {
          "internalType": "string",
          "name": "licenseId",
          "type": "string"
        },
        {
          "internalType": "uint256",
          "name": "depositPrice",
          "type": "uint256"
        },
        {
          "internalType": "uint256",
          "name": "transferPrice",
          "type": "uint256"
        },
        {
          "internalType": "uint256",
          "name": "timeStart",
          "type": "uint256"
        },
        {
          "internalType": "uint256",
          "name": "timeEnd",
          "type": "uint256"
        }
      ],
      "stateMutability": "view",
      "type": "function"
    },
    {
      "inputs": [
        {
          "internalType": "uint256",
          "name": "_idTransaction",
          "type": "uint256"
        }
      ],
      "name": "payment",
      "outputs": [],
      "stateMutability": "payable",
      "type": "function"
    },
    {
      "inputs": [
        {
          "internalType": "uint256",
          "name": "_idTransaction",
          "type": "uint256"
        }
      ],
      "name": "sellerCancelTransaction",
      "outputs": [],
      "stateMutability": "payable",
      "type": "function"
    },
    {
      "inputs": [
        {
          "internalType": "contract ILandLicenseRegistry",
          "name": "_LandLicenseRegistryContractAddress",
          "type": "address"
        }
      ],
      "name": "setLandLicenseRegistryContract",
      "outputs": [],
      "stateMutability": "nonpayable",
      "type": "function"
    }
  ],
  "bytecode": "0x60806040523480156200001157600080fd5b506040516200594d3803806200594d833981810160405281019062000037919062000096565b80600260006101000a81548173ffffffffffffffffffffffffffffffffffffffff021916908373ffffffffffffffffffffffffffffffffffffffff1602179055505062000124565b60008151905062000090816200010a565b92915050565b600060208284031215620000a957600080fd5b6000620000b9848285016200007f565b91505092915050565b6000620000cf82620000ea565b9050919050565b6000620000e382620000c2565b9050919050565b600073ffffffffffffffffffffffffffffffffffffffff82169050919050565b6200011581620000d6565b81146200012157600080fd5b50565b61581980620001346000396000f3fe6080604052600436106100a75760003560e01c8063973515f111610064578063973515f1146101ad578063a9dd6895146101c9578063af640d0f146101f2578063b1667ee11461021d578063c01a8c841461025a578063f189340014610276576100a7565b80633380c0d8146100ac57806333ea3dc8146100c85780638047e3481461010b5780638b3c99e31461014c5780638c80a5e8146101685780638dd83aa514610191575b600080fd5b6100c660048036038101906100c19190614569565b61029f565b005b3480156100d457600080fd5b506100ef60048036038101906100ea9190614569565b611249565b6040516101029796959493929190614eea565b60405180910390f35b34801561011757600080fd5b50610132600480360381019061012d9190614569565b611489565b60405161014395949392919061506e565b60405180910390f35b61016660048036038101906101619190614569565b611547565b005b34801561017457600080fd5b5061018f600480360381019061018a9190614569565b611a4b565b005b6101ab60048036038101906101a69190614569565b6123ce565b005b6101c760048036038101906101c29190614499565b612f8e565b005b3480156101d557600080fd5b506101f060048036038101906101eb9190614569565b613382565b005b3480156101fe57600080fd5b506102076138cf565b6040516102149190615348565b60405180910390f35b34801561022957600080fd5b50610244600480360381019061023f9190614569565b6138d5565b6040516102519190615001565b60405180910390f35b610274600480360381019061026f9190614569565b6138f5565b005b34801561028257600080fd5b5061029d60048036038101906102989190614540565b613fc1565b005b80600060088111156102da577f4e487b7100000000000000000000000000000000000000000000000000000000600052602160045260246000fd5b6003600083815260200190815260200160002060009054906101000a900460ff166008811115610333577f4e487b7100000000000000000000000000000000000000000000000000000000600052602160045260246000fd5b14806103cf575060036008811115610374577f4e487b7100000000000000000000000000000000000000000000000000000000600052602160045260246000fd5b6003600083815260200190815260200160002060009054906101000a900460ff1660088111156103cd577f4e487b7100000000000000000000000000000000000000000000000000000000600052602160045260246000fd5b145b8061046a57506006600881111561040f577f4e487b7100000000000000000000000000000000000000000000000000000000600052602160045260246000fd5b6003600083815260200190815260200160002060009054906101000a900460ff166008811115610468577f4e487b7100000000000000000000000000000000000000000000000000000000600052602160045260246000fd5b145b6104a9576040517f08c379a00000000000000000000000000000000000000000000000000000000081526004016104a090615308565b60405180910390fd5b6000600460008481526020019081526020016000206040518060e00160405290816000820180548060200260200160405190810160405280929190818152602001828054801561054e57602002820191906000526020600020905b8160009054906101000a900473ffffffffffffffffffffffffffffffffffffffff1673ffffffffffffffffffffffffffffffffffffffff1681526020019060010190808311610504575b50505050508152602001600182018054806020026020016040519081016040528092919081815260200182805480156105dc57602002820191906000526020600020905b8160009054906101000a900473ffffffffffffffffffffffffffffffffffffffff1673ffffffffffffffffffffffffffffffffffffffff1681526020019060010190808311610592575b505050505081526020016002820180546105f590615645565b80601f016020809104026020016040519081016040528092919081815260200182805461062190615645565b801561066e5780601f106106435761010080835404028352916020019161066e565b820191906000526020600020905b81548152906001019060200180831161065157829003601f168201915b50505050508152602001600382015481526020016004820154815260200160058201548152602001600682015481525050905080600001516000815181106106df577f4e487b7100000000000000000000000000000000000000000000000000000000600052603260045260246000fd5b602002602001015173ffffffffffffffffffffffffffffffffffffffff163373ffffffffffffffffffffffffffffffffffffffff161415610ae35760006008811115610754577f4e487b7100000000000000000000000000000000000000000000000000000000600052602160045260246000fd5b6003600085815260200190815260200160002060009054906101000a900460ff1660088111156107ad577f4e487b7100000000000000000000000000000000000000000000000000000000600052602160045260246000fd5b1415610865573373ffffffffffffffffffffffffffffffffffffffff166108fc82606001519081150290604051600060405180830381858888f193505050501580156107fd573d6000803e3d6000fd5b5060016003600085815260200190815260200160002060006101000a81548160ff0219169083600881111561085b577f4e487b7100000000000000000000000000000000000000000000000000000000600052602160045260246000fd5b0217905550610ade565b6003600881111561089f577f4e487b7100000000000000000000000000000000000000000000000000000000600052602160045260246000fd5b6003600085815260200190815260200160002060009054906101000a900460ff1660088111156108f8577f4e487b7100000000000000000000000000000000000000000000000000000000600052602160045260246000fd5b14156109655760046003600085815260200190815260200160002060006101000a81548160ff0219169083600881111561095b577f4e487b7100000000000000000000000000000000000000000000000000000000600052602160045260246000fd5b0217905550610add565b6006600881111561099f577f4e487b7100000000000000000000000000000000000000000000000000000000600052602160045260246000fd5b6003600085815260200190815260200160002060009054906101000a900460ff1660088111156109f8577f4e487b7100000000000000000000000000000000000000000000000000000000600052602160045260246000fd5b1415610adc5760003390508073ffffffffffffffffffffffffffffffffffffffff166108fc60c88460800151610a2e91906154c4565b84606001518560800151610a42919061554f565b610a4c919061546e565b9081150290604051600060405180830381858888f19350505050158015610a77573d6000803e3d6000fd5b5060046003600086815260200190815260200160002060006101000a81548160ff02191690836008811115610ad5577f4e487b7100000000000000000000000000000000000000000000000000000000600052602160045260246000fd5b0217905550505b5b5b61115a565b8060200151600081518110610b21577f4e487b7100000000000000000000000000000000000000000000000000000000600052603260045260246000fd5b602002602001015173ffffffffffffffffffffffffffffffffffffffff163373ffffffffffffffffffffffffffffffffffffffff16141561111e5760006008811115610b96577f4e487b7100000000000000000000000000000000000000000000000000000000600052602160045260246000fd5b6003600085815260200190815260200160002060009054906101000a900460ff166008811115610bef577f4e487b7100000000000000000000000000000000000000000000000000000000600052602160045260246000fd5b1415610cf25760008160000151600081518110610c35577f4e487b7100000000000000000000000000000000000000000000000000000000600052603260045260246000fd5b602002602001015190508073ffffffffffffffffffffffffffffffffffffffff166108fc83606001519081150290604051600060405180830381858888f19350505050158015610c89573d6000803e3d6000fd5b5060026003600086815260200190815260200160002060006101000a81548160ff02191690836008811115610ce7577f4e487b7100000000000000000000000000000000000000000000000000000000600052602160045260246000fd5b021790555050611119565b60036008811115610d2c577f4e487b7100000000000000000000000000000000000000000000000000000000600052602160045260246000fd5b6003600085815260200190815260200160002060009054906101000a900460ff166008811115610d85577f4e487b7100000000000000000000000000000000000000000000000000000000600052602160045260246000fd5b1415610ee4576000610da56002836060015161400590919063ffffffff16565b905080341015610dea576040517f08c379a0000000000000000000000000000000000000000000000000000000008152600401610de1906151c8565b60405180910390fd5b60008260000151600081518110610e2a577f4e487b7100000000000000000000000000000000000000000000000000000000600052603260045260246000fd5b602002602001015190508073ffffffffffffffffffffffffffffffffffffffff166108fc839081150290604051600060405180830381858888f19350505050158015610e7a573d6000803e3d6000fd5b5060046003600087815260200190815260200160002060006101000a81548160ff02191690836008811115610ed8577f4e487b7100000000000000000000000000000000000000000000000000000000600052602160045260246000fd5b02179055505050611118565b60066008811115610f1e577f4e487b7100000000000000000000000000000000000000000000000000000000600052602160045260246000fd5b6003600085815260200190815260200160002060009054906101000a900460ff166008811115610f77577f4e487b7100000000000000000000000000000000000000000000000000000000600052602160045260246000fd5b1415611117576000610f976002836060015161400590919063ffffffff16565b90506000610fdb610fb660c8856080015161407490919063ffffffff16565b610fcd84866080015161408f90919063ffffffff16565b61408f90919063ffffffff16565b905081341015611020576040517f08c379a000000000000000000000000000000000000000000000000000000000815260040161101790615248565b60405180910390fd5b60008360000151600081518110611060577f4e487b7100000000000000000000000000000000000000000000000000000000600052603260045260246000fd5b602002602001015190508073ffffffffffffffffffffffffffffffffffffffff166108fc839081150290604051600060405180830381858888f193505050501580156110b0573d6000803e3d6000fd5b5060076003600088815260200190815260200160002060006101000a81548160ff0219169083600881111561110e577f4e487b7100000000000000000000000000000000000000000000000000000000600052602160045260246000fd5b02179055505050505b5b5b611159565b6040517f08c379a000000000000000000000000000000000000000000000000000000000815260040161115090615288565b60405180910390fd5b5b600260009054906101000a900473ffffffffffffffffffffffffffffffffffffffff1673ffffffffffffffffffffffffffffffffffffffff16635920108b82604001516040518263ffffffff1660e01b81526004016111b9919061501c565b600060405180830381600087803b1580156111d357600080fd5b505af11580156111e7573d6000803e3d6000fd5b505050507f25c1c8d9d47e7ff6f5563a94ae2f009d1d4033e5d2c3453208602186310b741e836003600086815260200190815260200160002060009054906101000a900460ff1660405161123c929190615363565b60405180910390a1505050565b60608060606000806000806000600460008a81526020019081526020016000206040518060e0016040529081600082018054806020026020016040519081016040528092919081815260200182805480156112f957602002820191906000526020600020905b8160009054906101000a900473ffffffffffffffffffffffffffffffffffffffff1673ffffffffffffffffffffffffffffffffffffffff16815260200190600101908083116112af575b505050505081526020016001820180548060200260200160405190810160405280929190818152602001828054801561138757602002820191906000526020600020905b8160009054906101000a900473ffffffffffffffffffffffffffffffffffffffff1673ffffffffffffffffffffffffffffffffffffffff168152602001906001019080831161133d575b505050505081526020016002820180546113a090615645565b80601f01602080910402602001604051908101604052809291908181526020018280546113cc90615645565b80156114195780601f106113ee57610100808354040283529160200191611419565b820191906000526020600020905b8154815290600101906020018083116113fc57829003601f168201915b505050505081526020016003820154815260200160048201548152602001600582015481526020016006820154815250509050806000015181602001518260400151836060015184608001518560a001518660c00151975097509750975097509750975050919395979092949650565b60046020528060005260406000206000915090508060020180546114ac90615645565b80601f01602080910402602001604051908101604052809291908181526020018280546114d890615645565b80156115255780601f106114fa57610100808354040283529160200191611525565b820191906000526020600020905b81548152906001019060200180831161150857829003601f168201915b5050505050908060030154908060040154908060050154908060060154905085565b806003806008811115611583577f4e487b7100000000000000000000000000000000000000000000000000000000600052602160045260246000fd5b6003600084815260200190815260200160002060009054906101000a900460ff1660088111156115dc577f4e487b7100000000000000000000000000000000000000000000000000000000600052602160045260246000fd5b1461161c576040517f08c379a0000000000000000000000000000000000000000000000000000000008152600401611613906150c8565b60405180910390fd5b6000600460008581526020019081526020016000206040518060e0016040529081600082018054806020026020016040519081016040528092919081815260200182805480156116c157602002820191906000526020600020905b8160009054906101000a900473ffffffffffffffffffffffffffffffffffffffff1673ffffffffffffffffffffffffffffffffffffffff1681526020019060010190808311611677575b505050505081526020016001820180548060200260200160405190810160405280929190818152602001828054801561174f57602002820191906000526020600020905b8160009054906101000a900473ffffffffffffffffffffffffffffffffffffffff1673ffffffffffffffffffffffffffffffffffffffff1681526020019060010190808311611705575b5050505050815260200160028201805461176890615645565b80601f016020809104026020016040519081016040528092919081815260200182805461179490615645565b80156117e15780601f106117b6576101008083540402835291602001916117e1565b820191906000526020600020905b8154815290600101906020018083116117c457829003601f168201915b5050505050815260200160038201548152602001600482015481526020016005820154815260200160068201548152505090508060c0015142111561185b576040517f08c379a0000000000000000000000000000000000000000000000000000000008152600401611852906151a8565b60405180910390fd5b6000816000015160008151811061189b577f4e487b7100000000000000000000000000000000000000000000000000000000600052603260045260246000fd5b602002602001015190508073ffffffffffffffffffffffffffffffffffffffff163373ffffffffffffffffffffffffffffffffffffffff1614611913576040517f08c379a000000000000000000000000000000000000000000000000000000000815260040161190a906152c8565b60405180910390fd5b6000611930836060015184608001516140e190919063ffffffff16565b9050600061194c60c8856080015161407490919063ffffffff16565b90506000611963828461408f90919063ffffffff16565b9050803410156119a8576040517f08c379a000000000000000000000000000000000000000000000000000000000815260040161199f906152e8565b60405180910390fd5b6006600360008a815260200190815260200160002060006101000a81548160ff02191690836008811115611a05577f4e487b7100000000000000000000000000000000000000000000000000000000600052602160045260246000fd5b02179055507fd73298c59e2f8823f5313441b46ced5bddf204a2d4d72bdd904a6d6785e51ae988604051611a399190615348565b60405180910390a15050505050505050565b8060006008811115611a86577f4e487b7100000000000000000000000000000000000000000000000000000000600052602160045260246000fd5b6003600083815260200190815260200160002060009054906101000a900460ff166008811115611adf577f4e487b7100000000000000000000000000000000000000000000000000000000600052602160045260246000fd5b1480611b7b575060036008811115611b20577f4e487b7100000000000000000000000000000000000000000000000000000000600052602160045260246000fd5b6003600083815260200190815260200160002060009054906101000a900460ff166008811115611b79577f4e487b7100000000000000000000000000000000000000000000000000000000600052602160045260246000fd5b145b80611c16575060066008811115611bbb577f4e487b7100000000000000000000000000000000000000000000000000000000600052602160045260246000fd5b6003600083815260200190815260200160002060009054906101000a900460ff166008811115611c14577f4e487b7100000000000000000000000000000000000000000000000000000000600052602160045260246000fd5b145b611c55576040517f08c379a0000000000000000000000000000000000000000000000000000000008152600401611c4c90615308565b60405180910390fd5b6000600460008481526020019081526020016000206040518060e001604052908160008201805480602002602001604051908101604052809291908181526020018280548015611cfa57602002820191906000526020600020905b8160009054906101000a900473ffffffffffffffffffffffffffffffffffffffff1673ffffffffffffffffffffffffffffffffffffffff1681526020019060010190808311611cb0575b5050505050815260200160018201805480602002602001604051908101604052809291908181526020018280548015611d8857602002820191906000526020600020905b8160009054906101000a900473ffffffffffffffffffffffffffffffffffffffff1673ffffffffffffffffffffffffffffffffffffffff1681526020019060010190808311611d3e575b50505050508152602001600282018054611da190615645565b80601f0160208091040260200160405190810160405280929190818152602001828054611dcd90615645565b8015611e1a5780601f10611def57610100808354040283529160200191611e1a565b820191906000526020600020905b815481529060010190602001808311611dfd57829003601f168201915b5050505050815260200160038201548152602001600482015481526020016005820154815260200160068201548152505090508060000151600081518110611e8b577f4e487b7100000000000000000000000000000000000000000000000000000000600052603260045260246000fd5b602002602001015173ffffffffffffffffffffffffffffffffffffffff163373ffffffffffffffffffffffffffffffffffffffff1614611f00576040517f08c379a0000000000000000000000000000000000000000000000000000000008152600401611ef790615188565b60405180910390fd5b60006008811115611f3a577f4e487b7100000000000000000000000000000000000000000000000000000000600052602160045260246000fd5b6003600085815260200190815260200160002060009054906101000a900460ff166008811115611f93577f4e487b7100000000000000000000000000000000000000000000000000000000600052602160045260246000fd5b14156120515760003390508073ffffffffffffffffffffffffffffffffffffffff166108fc83606001519081150290604051600060405180830381858888f19350505050158015611fe8573d6000803e3d6000fd5b5060016003600086815260200190815260200160002060006101000a81548160ff02191690836008811115612046577f4e487b7100000000000000000000000000000000000000000000000000000000600052602160045260246000fd5b0217905550506122df565b6003600881111561208b577f4e487b7100000000000000000000000000000000000000000000000000000000600052602160045260246000fd5b6003600085815260200190815260200160002060009054906101000a900460ff1660088111156120e4577f4e487b7100000000000000000000000000000000000000000000000000000000600052602160045260246000fd5b14156121515760046003600085815260200190815260200160002060006101000a81548160ff02191690836008811115612147577f4e487b7100000000000000000000000000000000000000000000000000000000600052602160045260246000fd5b02179055506122de565b6006600881111561218b577f4e487b7100000000000000000000000000000000000000000000000000000000600052602160045260246000fd5b6003600085815260200190815260200160002060009054906101000a900460ff1660088111156121e4577f4e487b7100000000000000000000000000000000000000000000000000000000600052602160045260246000fd5b14156122dd5760003390508073ffffffffffffffffffffffffffffffffffffffff166108fc61224d61222460c8866080015161407490919063ffffffff16565b61223f866060015187608001516140e190919063ffffffff16565b61408f90919063ffffffff16565b9081150290604051600060405180830381858888f19350505050158015612278573d6000803e3d6000fd5b5060046003600086815260200190815260200160002060006101000a81548160ff021916908360088111156122d6577f4e487b7100000000000000000000000000000000000000000000000000000000600052602160045260246000fd5b0217905550505b5b5b600260009054906101000a900473ffffffffffffffffffffffffffffffffffffffff1673ffffffffffffffffffffffffffffffffffffffff16635920108b82604001516040518263ffffffff1660e01b815260040161233e919061501c565b600060405180830381600087803b15801561235857600080fd5b505af115801561236c573d6000803e3d6000fd5b505050507f25c1c8d9d47e7ff6f5563a94ae2f009d1d4033e5d2c3453208602186310b741e836003600086815260200190815260200160002060009054906101000a900460ff166040516123c1929190615363565b60405180910390a1505050565b8060006008811115612409577f4e487b7100000000000000000000000000000000000000000000000000000000600052602160045260246000fd5b6003600083815260200190815260200160002060009054906101000a900460ff166008811115612462577f4e487b7100000000000000000000000000000000000000000000000000000000600052602160045260246000fd5b14806124fe5750600360088111156124a3577f4e487b7100000000000000000000000000000000000000000000000000000000600052602160045260246000fd5b6003600083815260200190815260200160002060009054906101000a900460ff1660088111156124fc577f4e487b7100000000000000000000000000000000000000000000000000000000600052602160045260246000fd5b145b8061259957506006600881111561253e577f4e487b7100000000000000000000000000000000000000000000000000000000600052602160045260246000fd5b6003600083815260200190815260200160002060009054906101000a900460ff166008811115612597577f4e487b7100000000000000000000000000000000000000000000000000000000600052602160045260246000fd5b145b6125d8576040517f08c379a00000000000000000000000000000000000000000000000000000000081526004016125cf90615308565b60405180910390fd5b6000600460008481526020019081526020016000206040518060e00160405290816000820180548060200260200160405190810160405280929190818152602001828054801561267d57602002820191906000526020600020905b8160009054906101000a900473ffffffffffffffffffffffffffffffffffffffff1673ffffffffffffffffffffffffffffffffffffffff1681526020019060010190808311612633575b505050505081526020016001820180548060200260200160405190810160405280929190818152602001828054801561270b57602002820191906000526020600020905b8160009054906101000a900473ffffffffffffffffffffffffffffffffffffffff1673ffffffffffffffffffffffffffffffffffffffff16815260200190600101908083116126c1575b5050505050815260200160028201805461272490615645565b80601f016020809104026020016040519081016040528092919081815260200182805461275090615645565b801561279d5780601f106127725761010080835404028352916020019161279d565b820191906000526020600020905b81548152906001019060200180831161278057829003601f168201915b505050505081526020016003820154815260200160048201548152602001600582015481526020016006820154815250509050806020015160008151811061280e577f4e487b7100000000000000000000000000000000000000000000000000000000600052603260045260246000fd5b602002602001015173ffffffffffffffffffffffffffffffffffffffff163373ffffffffffffffffffffffffffffffffffffffff1614612883576040517f08c379a000000000000000000000000000000000000000000000000000000000815260040161287a90615128565b60405180910390fd5b600060088111156128bd577f4e487b7100000000000000000000000000000000000000000000000000000000600052602160045260246000fd5b6003600085815260200190815260200160002060009054906101000a900460ff166008811115612916577f4e487b7100000000000000000000000000000000000000000000000000000000600052602160045260246000fd5b1415612a19576000816000015160008151811061295c577f4e487b7100000000000000000000000000000000000000000000000000000000600052603260045260246000fd5b602002602001015190508073ffffffffffffffffffffffffffffffffffffffff166108fc83606001519081150290604051600060405180830381858888f193505050501580156129b0573d6000803e3d6000fd5b5060026003600086815260200190815260200160002060006101000a81548160ff02191690836008811115612a0e577f4e487b7100000000000000000000000000000000000000000000000000000000600052602160045260246000fd5b021790555050612e9f565b60036008811115612a53577f4e487b7100000000000000000000000000000000000000000000000000000000600052602160045260246000fd5b6003600085815260200190815260200160002060009054906101000a900460ff166008811115612aac577f4e487b7100000000000000000000000000000000000000000000000000000000600052602160045260246000fd5b1415612c0b576000612acc6002836060015161400590919063ffffffff16565b905080341015612b11576040517f08c379a0000000000000000000000000000000000000000000000000000000008152600401612b0890615168565b60405180910390fd5b60008260000151600081518110612b51577f4e487b7100000000000000000000000000000000000000000000000000000000600052603260045260246000fd5b602002602001015190508073ffffffffffffffffffffffffffffffffffffffff166108fc839081150290604051600060405180830381858888f19350505050158015612ba1573d6000803e3d6000fd5b5060056003600087815260200190815260200160002060006101000a81548160ff02191690836008811115612bff577f4e487b7100000000000000000000000000000000000000000000000000000000600052602160045260246000fd5b02179055505050612e9e565b60066008811115612c45577f4e487b7100000000000000000000000000000000000000000000000000000000600052602160045260246000fd5b6003600085815260200190815260200160002060009054906101000a900460ff166008811115612c9e577f4e487b7100000000000000000000000000000000000000000000000000000000600052602160045260246000fd5b1415612e9d576000612cbe6002836060015161400590919063ffffffff16565b90506000612cdd836060015184608001516140e190919063ffffffff16565b90506000612d1d612cfc60c8866080015161407490919063ffffffff16565b612d0f858561408f90919063ffffffff16565b61408f90919063ffffffff16565b905082341015612d62576040517f08c379a0000000000000000000000000000000000000000000000000000000008152600401612d5990615168565b60405180910390fd5b80471015612da5576040517f08c379a0000000000000000000000000000000000000000000000000000000008152600401612d9c90615268565b60405180910390fd5b60008460000151600081518110612de5577f4e487b7100000000000000000000000000000000000000000000000000000000600052603260045260246000fd5b602002602001015190508073ffffffffffffffffffffffffffffffffffffffff166108fc839081150290604051600060405180830381858888f19350505050158015612e35573d6000803e3d6000fd5b5060076003600089815260200190815260200160002060006101000a81548160ff02191690836008811115612e93577f4e487b7100000000000000000000000000000000000000000000000000000000600052602160045260246000fd5b0217905550505050505b5b5b600260009054906101000a900473ffffffffffffffffffffffffffffffffffffffff1673ffffffffffffffffffffffffffffffffffffffff16635920108b82604001516040518263ffffffff1660e01b8152600401612efe919061501c565b600060405180830381600087803b158015612f1857600080fd5b505af1158015612f2c573d6000803e3d6000fd5b505050507f25c1c8d9d47e7ff6f5563a94ae2f009d1d4033e5d2c3453208602186310b741e836003600086815260200190815260200160002060009054906101000a900460ff16604051612f81929190615363565b60405180910390a1505050565b6001600260009054906101000a900473ffffffffffffffffffffffffffffffffffffffff1673ffffffffffffffffffffffffffffffffffffffff1663baf5b911866040518263ffffffff1660e01b8152600401612feb919061501c565b60206040518083038186803b15801561300357600080fd5b505afa158015613017573d6000803e3d6000fd5b505050506040513d601f19601f8201168201806040525081019061303b9190614592565b60ff161461307e576040517f08c379a000000000000000000000000000000000000000000000000000000000815260040161307590615208565b60405180910390fd5b823410156130c1576040517f08c379a00000000000000000000000000000000000000000000000000000000081526004016130b8906152a8565b60405180910390fd5b81831115613104576040517f08c379a00000000000000000000000000000000000000000000000000000000081526004016130fb90615148565b60405180910390fd5b6000600260009054906101000a900473ffffffffffffffffffffffffffffffffffffffff1673ffffffffffffffffffffffffffffffffffffffff1663e9d0b666866040518263ffffffff1660e01b8152600401613161919061501c565b60006040518083038186803b15801561317957600080fd5b505afa15801561318d573d6000803e3d6000fd5b505050506040513d6000823e3d601f19601f820116820180604052508101906131b69190614458565b90506000603c806018856131ca91906154f5565b6131d491906154f5565b6131de91906154f5565b426131e9919061546e565b905060006040518060e001604052808981526020018481526020018881526020018781526020018681526020014281526020018381525090506001600054613231919061546e565b600081905550806004600080548152602001908152602001600020600082015181600001908051906020019061326892919061412e565b50602082015181600101908051906020019061328592919061412e565b5060408201518160020190805190602001906132a29291906141b8565b50606082015181600301556080820151816004015560a0820151816005015560c082015181600601559050506000600360008054815260200190815260200160002060006101000a81548160ff0219169083600881111561332c577f4e487b7100000000000000000000000000000000000000000000000000000000600052602160045260246000fd5b02179055507f0ea070c05dd8e6a93e49aca22ea78caccb5da0d7ba7c3ae80a0d14c6a0ca145588846000548a8a8a4289604051613370989796959493929190614f6e565b60405180910390a15050505050505050565b8060008060088111156133be577f4e487b7100000000000000000000000000000000000000000000000000000000600052602160045260246000fd5b6003600084815260200190815260200160002060009054906101000a900460ff166008811115613417577f4e487b7100000000000000000000000000000000000000000000000000000000600052602160045260246000fd5b14613457576040517f08c379a000000000000000000000000000000000000000000000000000000000815260040161344e906150c8565b60405180910390fd5b6000600460008581526020019081526020016000206040518060e0016040529081600082018054806020026020016040519081016040528092919081815260200182805480156134fc57602002820191906000526020600020905b8160009054906101000a900473ffffffffffffffffffffffffffffffffffffffff1673ffffffffffffffffffffffffffffffffffffffff16815260200190600101908083116134b2575b505050505081526020016001820180548060200260200160405190810160405280929190818152602001828054801561358a57602002820191906000526020600020905b8160009054906101000a900473ffffffffffffffffffffffffffffffffffffffff1673ffffffffffffffffffffffffffffffffffffffff1681526020019060010190808311613540575b505050505081526020016002820180546135a390615645565b80601f01602080910402602001604051908101604052809291908181526020018280546135cf90615645565b801561361c5780601f106135f15761010080835404028352916020019161361c565b820191906000526020600020905b8154815290600101906020018083116135ff57829003601f168201915b5050505050815260200160038201548152602001600482015481526020016005820154815260200160068201548152505090508060c00151421115613696576040517f08c379a000000000000000000000000000000000000000000000000000000000815260040161368d906150e8565b60405180910390fd5b600081602001516000815181106136d6577f4e487b7100000000000000000000000000000000000000000000000000000000600052603260045260246000fd5b602002602001015190508073ffffffffffffffffffffffffffffffffffffffff163373ffffffffffffffffffffffffffffffffffffffff161461374e576040517f08c379a0000000000000000000000000000000000000000000000000000000008152600401613745906151e8565b60405180910390fd5b60003390508073ffffffffffffffffffffffffffffffffffffffff166108fc84606001519081150290604051600060405180830381858888f1935050505015801561379d573d6000803e3d6000fd5b50600380600088815260200190815260200160002060006101000a81548160ff021916908360088111156137fa577f4e487b7100000000000000000000000000000000000000000000000000000000600052602160045260246000fd5b0217905550600260009054906101000a900473ffffffffffffffffffffffffffffffffffffffff1673ffffffffffffffffffffffffffffffffffffffff166323aff5f584604001516040518263ffffffff1660e01b815260040161385e919061501c565b600060405180830381600087803b15801561387857600080fd5b505af115801561388c573d6000803e3d6000fd5b505050507f388c8a92bccfa98c6f31aaf88a64dd0582b1775314bb3f73c1451357d7c79f4a866040516138bf9190615348565b60405180910390a1505050505050565b60005481565b60036020528060005260406000206000915054906101000a900460ff1681565b806006806008811115613931577f4e487b7100000000000000000000000000000000000000000000000000000000600052602160045260246000fd5b6003600084815260200190815260200160002060009054906101000a900460ff16600881111561398a577f4e487b7100000000000000000000000000000000000000000000000000000000600052602160045260246000fd5b146139ca576040517f08c379a00000000000000000000000000000000000000000000000000000000081526004016139c1906150c8565b60405180910390fd5b6000600460008581526020019081526020016000206040518060e001604052908160008201805480602002602001604051908101604052809291908181526020018280548015613a6f57602002820191906000526020600020905b8160009054906101000a900473ffffffffffffffffffffffffffffffffffffffff1673ffffffffffffffffffffffffffffffffffffffff1681526020019060010190808311613a25575b5050505050815260200160018201805480602002602001604051908101604052809291908181526020018280548015613afd57602002820191906000526020600020905b8160009054906101000a900473ffffffffffffffffffffffffffffffffffffffff1673ffffffffffffffffffffffffffffffffffffffff1681526020019060010190808311613ab3575b50505050508152602001600282018054613b1690615645565b80601f0160208091040260200160405190810160405280929190818152602001828054613b4290615645565b8015613b8f5780601f10613b6457610100808354040283529160200191613b8f565b820191906000526020600020905b815481529060010190602001808311613b7257829003601f168201915b5050505050815260200160038201548152602001600482015481526020016005820154815260200160068201548152505090508060c00151421115613c09576040517f08c379a0000000000000000000000000000000000000000000000000000000008152600401613c0090615228565b60405180910390fd5b60008160200151600081518110613c49577f4e487b7100000000000000000000000000000000000000000000000000000000600052603260045260246000fd5b602002602001015190508073ffffffffffffffffffffffffffffffffffffffff163373ffffffffffffffffffffffffffffffffffffffff1614613cc1576040517f08c379a0000000000000000000000000000000000000000000000000000000008152600401613cb890615328565b60405180910390fd5b6000613cdb6032846080015161407490919063ffffffff16565b90506000613cfa846060015185608001516140e190919063ffffffff16565b905081811015613d5d5760008183613d12919061554f565b905080341015613d57576040517f08c379a0000000000000000000000000000000000000000000000000000000008152600401613d4e90615108565b60405180910390fd5b50613db6565b60008282613d6b919061554f565b90503373ffffffffffffffffffffffffffffffffffffffff166108fc829081150290604051600060405180830381858888f19350505050158015613db3573d6000803e3d6000fd5b50505b600260009054906101000a900473ffffffffffffffffffffffffffffffffffffffff1673ffffffffffffffffffffffffffffffffffffffff166389e7d8a685604001518660000151600081518110613e37577f4e487b7100000000000000000000000000000000000000000000000000000000600052603260045260246000fd5b60200260200101516040518363ffffffff1660e01b8152600401613e5c92919061503e565b600060405180830381600087803b158015613e7657600080fd5b505af1158015613e8a573d6000803e3d6000fd5b5050505060086003600089815260200190815260200160002060006101000a81548160ff02191690836008811115613eeb577f4e487b7100000000000000000000000000000000000000000000000000000000600052602160045260246000fd5b0217905550600260009054906101000a900473ffffffffffffffffffffffffffffffffffffffff1673ffffffffffffffffffffffffffffffffffffffff16635920108b85604001516040518263ffffffff1660e01b8152600401613f4f919061501c565b600060405180830381600087803b158015613f6957600080fd5b505af1158015613f7d573d6000803e3d6000fd5b505050507f610f15d91c8a87f61ec3bdff536db3f7968f81d7d8b11902eb86011143959eda87604051613fb09190615348565b60405180910390a150505050505050565b80600260006101000a81548173ffffffffffffffffffffffffffffffffffffffff021916908373ffffffffffffffffffffffffffffffffffffffff16021790555050565b600080831415614018576000905061406e565b6000828461402691906154f5565b905082848261403591906154c4565b14614069577f4e487b7100000000000000000000000000000000000000000000000000000000600052600160045260246000fd5b809150505b92915050565b600080828461408391906154c4565b90508091505092915050565b600080828461409e919061546e565b9050838110156140d7577f4e487b7100000000000000000000000000000000000000000000000000000000600052600160045260246000fd5b8091505092915050565b60008282111561411a577f4e487b7100000000000000000000000000000000000000000000000000000000600052600160045260246000fd5b8183614126919061554f565b905092915050565b8280548282559060005260206000209081019282156141a7579160200282015b828111156141a65782518260006101000a81548173ffffffffffffffffffffffffffffffffffffffff021916908373ffffffffffffffffffffffffffffffffffffffff1602179055509160200191906001019061414e565b5b5090506141b4919061423e565b5090565b8280546141c490615645565b90600052602060002090601f0160209004810192826141e6576000855561422d565b82601f106141ff57805160ff191683800117855561422d565b8280016001018555821561422d579182015b8281111561422c578251825591602001919060010190614211565b5b50905061423a919061423e565b5090565b5b8082111561425757600081600090555060010161423f565b5090565b600061426e614269846153bd565b61538c565b9050808382526020820190508285602086028201111561428d57600080fd5b60005b858110156142bd57816142a38882614371565b845260208401935060208301925050600181019050614290565b5050509392505050565b60006142da6142d5846153bd565b61538c565b905080838252602082019050828560208602820111156142f957600080fd5b60005b85811015614329578161430f8882614386565b8452602084019350602083019250506001810190506142fc565b5050509392505050565b6000614346614341846153e9565b61538c565b90508281526020810184848401111561435e57600080fd5b614369848285615603565b509392505050565b60008135905061438081615787565b92915050565b60008151905061439581615787565b92915050565b600082601f8301126143ac57600080fd5b81356143bc84826020860161425b565b91505092915050565b600082601f8301126143d657600080fd5b81516143e68482602086016142c7565b91505092915050565b6000813590506143fe8161579e565b92915050565b600082601f83011261441557600080fd5b8135614425848260208601614333565b91505092915050565b60008135905061443d816157b5565b92915050565b600081519050614452816157cc565b92915050565b60006020828403121561446a57600080fd5b600082015167ffffffffffffffff81111561448457600080fd5b614490848285016143c5565b91505092915050565b600080600080600060a086880312156144b157600080fd5b600086013567ffffffffffffffff8111156144cb57600080fd5b6144d78882890161439b565b955050602086013567ffffffffffffffff8111156144f457600080fd5b61450088828901614404565b94505060406145118882890161442e565b93505060606145228882890161442e565b92505060806145338882890161442e565b9150509295509295909350565b60006020828403121561455257600080fd5b6000614560848285016143ef565b91505092915050565b60006020828403121561457b57600080fd5b60006145898482850161442e565b91505092915050565b6000602082840312156145a457600080fd5b60006145b284828501614443565b91505092915050565b60006145c783836145d3565b60208301905092915050565b6145dc81615583565b82525050565b6145eb81615583565b82525050565b60006145fc82615429565b614606818561544c565b935061461183615419565b8060005b8381101561464257815161462988826145bb565b97506146348361543f565b925050600181019050614615565b5085935050505092915050565b614658816155f1565b82525050565b600061466982615434565b614673818561545d565b9350614683818560208601615612565b61468c81615762565b840191505092915050565b60006146a460198361545d565b91507f4f6e6c7953746174653a20526571756972652073746174652e000000000000006000830152602082019050919050565b60006146e4602a8361545d565b91507f4163636570745472616e73616374696f6e3a205472616e73616374696f6e206860008301527f61732065787069726564000000000000000000000000000000000000000000006020830152604082019050919050565b600061474a60398361545d565b91507f436f6e6669726d5472616e73616374696f6e3a2056616c7565206d757374206260008301527f65206772656174657220636f73747320696e6375727265642e000000000000006020830152604082019050919050565b60006147b060378361545d565b91507f53656c6c657243616e63656c5472616e73616374696f6e3a207265717569726560008301527f20726570726573656e7461746976652073656c6c6572730000000000000000006020830152604082019050919050565b600061481660448361545d565b91507f4372656174655472616e73616374696f6e3a204465706f73697420707269636560008301527f206d75737420626520736d616c6c6572207468616e207472616e73666572207060208301527f72696365000000000000000000000000000000000000000000000000000000006040830152606082019050919050565b60006148a260458361545d565b91507f53656c6c657243616e63656c5472616e73616374696f6e3a2056616c7565206d60008301527f7573742062652067726561746572207468616e2032202a206465706f7369742060208301527f70726963650000000000000000000000000000000000000000000000000000006040830152606082019050919050565b600061492e60358361545d565b91507f427579657243616e63656c5472616e73616374696f6e3a20726571756972652060008301527f726570726573656e7461746976652062757965727300000000000000000000006020830152604082019050919050565b600061499460218361545d565b91507f5061796d656e743a205472616e73616374696f6e20686173206578706972656460008301527f2e000000000000000000000000000000000000000000000000000000000000006020830152604082019050919050565b60006149fa603d8361545d565b91507f43616e63656c5472616e73616374696f6e3a2056616c7565206d75737420626560008301527f206772656174657220636f6d70656e736174696f6e20616d6f756e742e0000006020830152604082019050919050565b6000614a6060328361545d565b91507f4163636570745472616e73616374696f6e3a207265717569726520726570726560008301527f73656e746174697665206f66206f776e657200000000000000000000000000006020830152604082019050919050565b6000614ac6603b8361545d565b91507f4372656174655472616e73616374696f6e3a205265717569726520737461746560008301527f206f6620636572746966696361746520697320414354495641544500000000006020830152604082019050919050565b6000614b2c602c8361545d565b91507f436f6e6669726d5472616e73616374696f6e3a205472616e73616374696f6e2060008301527f68617320657870697265642e00000000000000000000000000000000000000006020830152604082019050919050565b6000614b9260428361545d565b91507f43616e63656c5472616e73616374696f6e3a2056616c7565206d75737420626560008301527f2067726561746572207468616e20636f6d70656e736174696f6e20616d6f756e60208301527f742e0000000000000000000000000000000000000000000000000000000000006040830152606082019050919050565b6000614c1e60228361545d565b91507f42616c61636520636f6e74726163742061646472657373206e6f7420656e6f7560008301527f67680000000000000000000000000000000000000000000000000000000000006020830152604082019050919050565b6000614c8460298361545d565b91507f43616e63656c5472616e73616374696f6e3a20596f75277265206e6f7420706560008301527f726d697373696f6e2e00000000000000000000000000000000000000000000006020830152604082019050919050565b6000614cea603b8361545d565b91507f4372656174655472616e73616374696f6e3a20526571756972652076616c756560008301527f2067726561746572207468616e206465706f73697420707269636500000000006020830152604082019050919050565b6000614d5060278361545d565b91507f5061796d656e743a204f6e6c7920726570726573656e746174697665206f662060008301527f6275796572732e000000000000000000000000000000000000000000000000006020830152604082019050919050565b6000614db660308361545d565b91507f5061796d656e743a2056616c7565206d7573742062652067726561746572207460008301527f68616e20746f74616c20616d6f756e74000000000000000000000000000000006020830152604082019050919050565b6000614e1c602e8361545d565b91507f416c6c6f774d6f646966793a205472616e73616374696f6e2063616e2774206160008301527f6c6c6f77206d6f6469666965722e0000000000000000000000000000000000006020830152604082019050919050565b6000614e8260368361545d565b91507f436f6e6669726d5472616e73616374696f6e3a2052657175697265207265707260008301527f6573656e746174697665206f662073656c6c6572732e000000000000000000006020830152604082019050919050565b614ee4816155da565b82525050565b600060e0820190508181036000830152614f04818a6145f1565b90508181036020830152614f1881896145f1565b90508181036040830152614f2c818861465e565b9050614f3b6060830187614edb565b614f486080830186614edb565b614f5560a0830185614edb565b614f6260c0830184614edb565b98975050505050505050565b6000610100820190508181036000830152614f89818b6145f1565b90508181036020830152614f9d818a6145f1565b9050614fac6040830189614edb565b8181036060830152614fbe818861465e565b9050614fcd6080830187614edb565b614fda60a0830186614edb565b614fe760c0830185614edb565b614ff460e0830184614edb565b9998505050505050505050565b6000602082019050615016600083018461464f565b92915050565b60006020820190508181036000830152615036818461465e565b905092915050565b60006040820190508181036000830152615058818561465e565b905061506760208301846145e2565b9392505050565b600060a0820190508181036000830152615088818861465e565b90506150976020830187614edb565b6150a46040830186614edb565b6150b16060830185614edb565b6150be6080830184614edb565b9695505050505050565b600060208201905081810360008301526150e181614697565b9050919050565b60006020820190508181036000830152615101816146d7565b9050919050565b600060208201905081810360008301526151218161473d565b9050919050565b60006020820190508181036000830152615141816147a3565b9050919050565b6000602082019050818103600083015261516181614809565b9050919050565b6000602082019050818103600083015261518181614895565b9050919050565b600060208201905081810360008301526151a181614921565b9050919050565b600060208201905081810360008301526151c181614987565b9050919050565b600060208201905081810360008301526151e1816149ed565b9050919050565b6000602082019050818103600083015261520181614a53565b9050919050565b6000602082019050818103600083015261522181614ab9565b9050919050565b6000602082019050818103600083015261524181614b1f565b9050919050565b6000602082019050818103600083015261526181614b85565b9050919050565b6000602082019050818103600083015261528181614c11565b9050919050565b600060208201905081810360008301526152a181614c77565b9050919050565b600060208201905081810360008301526152c181614cdd565b9050919050565b600060208201905081810360008301526152e181614d43565b9050919050565b6000602082019050818103600083015261530181614da9565b9050919050565b6000602082019050818103600083015261532181614e0f565b9050919050565b6000602082019050818103600083015261534181614e75565b9050919050565b600060208201905061535d6000830184614edb565b92915050565b60006040820190506153786000830185614edb565b615385602083018461464f565b9392505050565b6000604051905081810181811067ffffffffffffffff821117156153b3576153b2615733565b5b8060405250919050565b600067ffffffffffffffff8211156153d8576153d7615733565b5b602082029050602081019050919050565b600067ffffffffffffffff82111561540457615403615733565b5b601f19601f8301169050602081019050919050565b6000819050602082019050919050565b600081519050919050565b600081519050919050565b6000602082019050919050565b600082825260208201905092915050565b600082825260208201905092915050565b6000615479826155da565b9150615484836155da565b9250827fffffffffffffffffffffffffffffffffffffffffffffffffffffffffffffffff038211156154b9576154b8615677565b5b828201905092915050565b60006154cf826155da565b91506154da836155da565b9250826154ea576154e96156a6565b5b828204905092915050565b6000615500826155da565b915061550b836155da565b9250817fffffffffffffffffffffffffffffffffffffffffffffffffffffffffffffffff048311821515161561554457615543615677565b5b828202905092915050565b600061555a826155da565b9150615565836155da565b92508282101561557857615577615677565b5b828203905092915050565b600061558e826155ba565b9050919050565b60006155a082615583565b9050919050565b60008190506155b582615773565b919050565b600073ffffffffffffffffffffffffffffffffffffffff82169050919050565b6000819050919050565b600060ff82169050919050565b60006155fc826155a7565b9050919050565b82818337600083830152505050565b60005b83811015615630578082015181840152602081019050615615565b8381111561563f576000848401525b50505050565b6000600282049050600182168061565d57607f821691505b6020821081141561567157615670615704565b5b50919050565b7f4e487b7100000000000000000000000000000000000000000000000000000000600052601160045260246000fd5b7f4e487b7100000000000000000000000000000000000000000000000000000000600052601260045260246000fd5b7f4e487b7100000000000000000000000000000000000000000000000000000000600052602160045260246000fd5b7f4e487b7100000000000000000000000000000000000000000000000000000000600052602260045260246000fd5b7f4e487b7100000000000000000000000000000000000000000000000000000000600052604160045260246000fd5b6000601f19601f8301169050919050565b60098110615784576157836156d5565b5b50565b61579081615583565b811461579b57600080fd5b50565b6157a781615595565b81146157b257600080fd5b50565b6157be816155da565b81146157c957600080fd5b50565b6157d5816155e4565b81146157e057600080fd5b5056fea2646970667358221220a08f6922b60983990d89281318c28ed4c5fc5338c075895929ecc9fef6b8222964736f6c63430008000033",
  "linkReferences": {},
  "deployedLinkReferences": {}
}