{
  "_format": "hh-sol-artifact-1",
  "contractName": "TransactionContract",
  "sourceName": "contracts/TransactionContract.sol",
  "abi": [
    {
      "inputs": [
        {
          "internalType": "contract ILandLicenseRegistry",
          "name": "_LandLicenseRegistryContractAddress",
          "type": "address"
        }
      ],
      "stateMutability": "nonpayable",
      "type": "constructor"
    },
    {
      "anonymous": false,
      "inputs": [
        {
          "indexed": false,
          "internalType": "uint256",
          "name": "idTransaction",
          "type": "uint256"
        }
      ],
      "name": "DepositSigned",
      "type": "event"
    },
    {
      "anonymous": false,
      "inputs": [
        {
          "indexed": false,
          "internalType": "uint256",
          "name": "idTransaction",
          "type": "uint256"
        }
      ],
      "name": "Payment",
      "type": "event"
    },
    {
      "anonymous": false,
      "inputs": [
        {
          "indexed": false,
          "internalType": "uint256",
          "name": "idTransaction",
          "type": "uint256"
        },
        {
          "indexed": false,
          "internalType": "enum TransactionContract.State",
          "name": "state",
          "type": "uint8"
        }
      ],
      "name": "TransactionCanceled",
      "type": "event"
    },
    {
      "anonymous": false,
      "inputs": [
        {
          "indexed": false,
          "internalType": "address[]",
          "name": "buyers",
          "type": "address[]"
        },
        {
          "indexed": false,
          "internalType": "address[]",
          "name": "sellers",
          "type": "address[]"
        },
        {
          "indexed": false,
          "internalType": "uint256",
          "name": "idTransaction",
          "type": "uint256"
        },
        {
          "indexed": false,
          "internalType": "string",
          "name": "licenseId",
          "type": "string"
        },
        {
          "indexed": false,
          "internalType": "uint256",
          "name": "depositPrice",
          "type": "uint256"
        },
        {
          "indexed": false,
          "internalType": "uint256",
          "name": "transferPrice",
          "type": "uint256"
        },
        {
          "indexed": false,
          "internalType": "uint256",
          "name": "timeStart",
          "type": "uint256"
        },
        {
          "indexed": false,
          "internalType": "uint256",
          "name": "timeEnd",
          "type": "uint256"
        }
      ],
      "name": "TransactionCreated",
      "type": "event"
    },
    {
      "anonymous": false,
      "inputs": [
        {
          "indexed": false,
          "internalType": "uint256",
          "name": "idTransaction",
          "type": "uint256"
        }
      ],
      "name": "TransactionSuccess",
      "type": "event"
    },
    {
      "inputs": [
        {
          "internalType": "uint256",
          "name": "_idTransaction",
          "type": "uint256"
        }
      ],
      "name": "acceptTransaction",
      "outputs": [],
      "stateMutability": "nonpayable",
      "type": "function"
    },
    {
      "inputs": [
        {
          "internalType": "uint256",
          "name": "_idTransaction",
          "type": "uint256"
        }
      ],
      "name": "buyerCancelTransaction",
      "outputs": [],
      "stateMutability": "nonpayable",
      "type": "function"
    },
    {
      "inputs": [
        {
          "internalType": "uint256",
          "name": "_idTransaction",
          "type": "uint256"
        }
      ],
      "name": "cancelTransaction",
      "outputs": [],
      "stateMutability": "payable",
      "type": "function"
    },
    {
      "inputs": [
        {
          "internalType": "uint256",
          "name": "_idTransaction",
          "type": "uint256"
        }
      ],
      "name": "confirmTransaction",
      "outputs": [],
      "stateMutability": "payable",
      "type": "function"
    },
    {
      "inputs": [
        {
          "internalType": "address[]",
          "name": "_buyers",
          "type": "address[]"
        },
        {
          "internalType": "string",
          "name": "_licenseId",
          "type": "string"
        },
        {
          "internalType": "uint256",
          "name": "_depositPrice",
          "type": "uint256"
        },
        {
          "internalType": "uint256",
          "name": "_transferPrice",
          "type": "uint256"
        },
        {
          "internalType": "uint256",
          "name": "_depositTime",
          "type": "uint256"
        }
      ],
      "name": "createTransaction",
      "outputs": [],
      "stateMutability": "payable",
      "type": "function"
    },
    {
      "inputs": [
        {
          "internalType": "uint256",
          "name": "_idTransaction",
          "type": "uint256"
        }
      ],
      "name": "getTransaction",
      "outputs": [
        {
          "internalType": "address[]",
          "name": "",
          "type": "address[]"
        },
        {
          "internalType": "address[]",
          "name": "",
          "type": "address[]"
        },
        {
          "internalType": "string",
          "name": "",
          "type": "string"
        },
        {
          "internalType": "uint256",
          "name": "",
          "type": "uint256"
        },
        {
          "internalType": "uint256",
          "name": "",
          "type": "uint256"
        },
        {
          "internalType": "uint256",
          "name": "",
          "type": "uint256"
        },
        {
          "internalType": "uint256",
          "name": "",
          "type": "uint256"
        }
      ],
      "stateMutability": "view",
      "type": "function"
    },
    {
      "inputs": [],
      "name": "id",
      "outputs": [
        {
          "internalType": "uint256",
          "name": "",
          "type": "uint256"
        }
      ],
      "stateMutability": "view",
      "type": "function"
    },
    {
      "inputs": [
        {
          "internalType": "uint256",
          "name": "",
          "type": "uint256"
        }
      ],
      "name": "idToState",
      "outputs": [
        {
          "internalType": "enum TransactionContract.State",
          "name": "",
          "type": "uint8"
        }
      ],
      "stateMutability": "view",
      "type": "function"
    },
    {
      "inputs": [
        {
          "internalType": "uint256",
          "name": "",
          "type": "uint256"
        }
      ],
      "name": "idToTransaction",
      "outputs": [
        {
          "internalType": "string",
          "name": "licenseId",
          "type": "string"
        },
        {
          "internalType": "uint256",
          "name": "depositPrice",
          "type": "uint256"
        },
        {
          "internalType": "uint256",
          "name": "transferPrice",
          "type": "uint256"
        },
        {
          "internalType": "uint256",
          "name": "timeStart",
          "type": "uint256"
        },
        {
          "internalType": "uint256",
          "name": "timeEnd",
          "type": "uint256"
        }
      ],
      "stateMutability": "view",
      "type": "function"
    },
    {
      "inputs": [
        {
          "internalType": "uint256",
          "name": "_idTransaction",
          "type": "uint256"
        }
      ],
      "name": "payment",
      "outputs": [],
      "stateMutability": "payable",
      "type": "function"
    },
    {
      "inputs": [
        {
          "internalType": "uint256",
          "name": "_idTransaction",
          "type": "uint256"
        }
      ],
      "name": "sellerCancelTransaction",
      "outputs": [],
      "stateMutability": "payable",
      "type": "function"
    },
    {
      "inputs": [
        {
          "internalType": "contract ILandLicenseRegistry",
          "name": "_LandLicenseRegistryContractAddress",
          "type": "address"
        }
      ],
      "name": "setLandLicenseRegistryContract",
      "outputs": [],
      "stateMutability": "nonpayable",
      "type": "function"
    }
  ],
  "bytecode": "0x60806040523480156200001157600080fd5b5060405162005089380380620050898339818101604052810190620000379190620000fd565b80600260006101000a81548173ffffffffffffffffffffffffffffffffffffffff021916908373ffffffffffffffffffffffffffffffffffffffff160217905550506200012f565b600080fd5b600073ffffffffffffffffffffffffffffffffffffffff82169050919050565b6000620000b18262000084565b9050919050565b6000620000c582620000a4565b9050919050565b620000d781620000b8565b8114620000e357600080fd5b50565b600081519050620000f781620000cc565b92915050565b6000602082840312156200011657620001156200007f565b5b60006200012684828501620000e6565b91505092915050565b614f4a806200013f6000396000f3fe6080604052600436106100a75760003560e01c8063973515f111610064578063973515f1146101ad578063a9dd6895146101c9578063af640d0f146101f2578063b1667ee11461021d578063c01a8c841461025a578063f189340014610276576100a7565b80633380c0d8146100ac57806333ea3dc8146100c85780638047e3481461010b5780638b3c99e31461014c5780638c80a5e8146101685780638dd83aa514610191575b600080fd5b6100c660048036038101906100c191906135e5565b61029f565b005b3480156100d457600080fd5b506100ef60048036038101906100ea91906135e5565b610df3565b60405161010297969594939291906137a1565b60405180910390f35b34801561011757600080fd5b50610132600480360381019061012d91906135e5565b611033565b604051610143959493929190613825565b60405180910390f35b610166600480360381019061016191906135e5565b6110f1565b005b34801561017457600080fd5b5061018f600480360381019061018a91906135e5565b61155d565b005b6101ab60048036038101906101a691906135e5565b611c7d565b005b6101c760048036038101906101c29190613aa8565b612568565b005b3480156101d557600080fd5b506101f060048036038101906101eb91906135e5565b612911565b005b3480156101fe57600080fd5b50610207612dc6565b6040516102149190613b5b565b60405180910390f35b34801561022957600080fd5b50610244600480360381019061023f91906135e5565b612dcc565b6040516102519190613bed565b60405180910390f35b610274600480360381019061026f91906135e5565b612dec565b005b34801561028257600080fd5b5061029d60048036038101906102989190613c46565b6133fa565b005b80600060088111156102b4576102b3613b76565b5b6003600083815260200190815260200160002060009054906101000a900460ff1660088111156102e7576102e6613b76565b5b148061033757506003600881111561030257610301613b76565b5b6003600083815260200190815260200160002060009054906101000a900460ff16600881111561033557610334613b76565b5b145b8061038657506006600881111561035157610350613b76565b5b6003600083815260200190815260200160002060009054906101000a900460ff16600881111561038457610383613b76565b5b145b6103c5576040517f08c379a00000000000000000000000000000000000000000000000000000000081526004016103bc90613ce5565b60405180910390fd5b6000600460008481526020019081526020016000206040518060e00160405290816000820180548060200260200160405190810160405280929190818152602001828054801561046a57602002820191906000526020600020905b8160009054906101000a900473ffffffffffffffffffffffffffffffffffffffff1673ffffffffffffffffffffffffffffffffffffffff1681526020019060010190808311610420575b50505050508152602001600182018054806020026020016040519081016040528092919081815260200182805480156104f857602002820191906000526020600020905b8160009054906101000a900473ffffffffffffffffffffffffffffffffffffffff1673ffffffffffffffffffffffffffffffffffffffff16815260200190600101908083116104ae575b5050505050815260200160028201805461051190613d34565b80601f016020809104026020016040519081016040528092919081815260200182805461053d90613d34565b801561058a5780601f1061055f5761010080835404028352916020019161058a565b820191906000526020600020905b81548152906001019060200180831161056d57829003601f168201915b50505050508152602001600382015481526020016004820154815260200160058201548152602001600682015481525050905080600001516000815181106105d5576105d4613d65565b5b602002602001015173ffffffffffffffffffffffffffffffffffffffff163373ffffffffffffffffffffffffffffffffffffffff160361087f576000600881111561062357610622613b76565b5b6003600085815260200190815260200160002060009054906101000a900460ff16600881111561065657610655613b76565b5b036106e7573373ffffffffffffffffffffffffffffffffffffffff166108fc82606001519081150290604051600060405180830381858888f193505050501580156106a5573d6000803e3d6000fd5b5060016003600085815260200190815260200160002060006101000a81548160ff021916908360088111156106dd576106dc613b76565b5b021790555061087a565b600360088111156106fb576106fa613b76565b5b6003600085815260200190815260200160002060009054906101000a900460ff16600881111561072e5761072d613b76565b5b036107745760046003600085815260200190815260200160002060006101000a81548160ff0219169083600881111561076a57610769613b76565b5b0217905550610879565b6006600881111561078857610787613b76565b5b6003600085815260200190815260200160002060009054906101000a900460ff1660088111156107bb576107ba613b76565b5b036108785760003390508073ffffffffffffffffffffffffffffffffffffffff166108fc60c884608001516107f09190613df2565b846060015185608001516108049190613e23565b61080e9190613e57565b9081150290604051600060405180830381858888f19350505050158015610839573d6000803e3d6000fd5b5060046003600086815260200190815260200160002060006101000a81548160ff0219169083600881111561087157610870613b76565b5b0217905550505b5b5b610d04565b806020015160008151811061089757610896613d65565b5b602002602001015173ffffffffffffffffffffffffffffffffffffffff163373ffffffffffffffffffffffffffffffffffffffff1603610cc857600060088111156108e5576108e4613b76565b5b6003600085815260200190815260200160002060009054906101000a900460ff16600881111561091857610917613b76565b5b036109ce576000816000015160008151811061093757610936613d65565b5b602002602001015190508073ffffffffffffffffffffffffffffffffffffffff166108fc83606001519081150290604051600060405180830381858888f1935050505015801561098b573d6000803e3d6000fd5b5060026003600086815260200190815260200160002060006101000a81548160ff021916908360088111156109c3576109c2613b76565b5b021790555050610cc3565b600360088111156109e2576109e1613b76565b5b6003600085815260200190815260200160002060009054906101000a900460ff166008811115610a1557610a14613b76565b5b03610b27576000610a346002836060015161343e90919063ffffffff16565b905080341015610a79576040517f08c379a0000000000000000000000000000000000000000000000000000000008152600401610a7090613efd565b60405180910390fd5b60008260000151600081518110610a9357610a92613d65565b5b602002602001015190508073ffffffffffffffffffffffffffffffffffffffff166108fc839081150290604051600060405180830381858888f19350505050158015610ae3573d6000803e3d6000fd5b5060046003600087815260200190815260200160002060006101000a81548160ff02191690836008811115610b1b57610b1a613b76565b5b02179055505050610cc2565b60066008811115610b3b57610b3a613b76565b5b6003600085815260200190815260200160002060009054906101000a900460ff166008811115610b6e57610b6d613b76565b5b03610cc1576000610b8d6002836060015161343e90919063ffffffff16565b90506000610bd1610bac60c8856080015161348690919063ffffffff16565b610bc38486608001516134a190919063ffffffff16565b6134a190919063ffffffff16565b905081341015610c16576040517f08c379a0000000000000000000000000000000000000000000000000000000008152600401610c0d90613fb5565b60405180910390fd5b60008360000151600081518110610c3057610c2f613d65565b5b602002602001015190508073ffffffffffffffffffffffffffffffffffffffff166108fc839081150290604051600060405180830381858888f19350505050158015610c80573d6000803e3d6000fd5b5060076003600088815260200190815260200160002060006101000a81548160ff02191690836008811115610cb857610cb7613b76565b5b02179055505050505b5b5b610d03565b6040517f08c379a0000000000000000000000000000000000000000000000000000000008152600401610cfa90614047565b60405180910390fd5b5b600260009054906101000a900473ffffffffffffffffffffffffffffffffffffffff1673ffffffffffffffffffffffffffffffffffffffff16635920108b82604001516040518263ffffffff1660e01b8152600401610d639190614067565b600060405180830381600087803b158015610d7d57600080fd5b505af1158015610d91573d6000803e3d6000fd5b505050507f25c1c8d9d47e7ff6f5563a94ae2f009d1d4033e5d2c3453208602186310b741e836003600086815260200190815260200160002060009054906101000a900460ff16604051610de6929190614089565b60405180910390a1505050565b60608060606000806000806000600460008a81526020019081526020016000206040518060e001604052908160008201805480602002602001604051908101604052809291908181526020018280548015610ea357602002820191906000526020600020905b8160009054906101000a900473ffffffffffffffffffffffffffffffffffffffff1673ffffffffffffffffffffffffffffffffffffffff1681526020019060010190808311610e59575b5050505050815260200160018201805480602002602001604051908101604052809291908181526020018280548015610f3157602002820191906000526020600020905b8160009054906101000a900473ffffffffffffffffffffffffffffffffffffffff1673ffffffffffffffffffffffffffffffffffffffff1681526020019060010190808311610ee7575b50505050508152602001600282018054610f4a90613d34565b80601f0160208091040260200160405190810160405280929190818152602001828054610f7690613d34565b8015610fc35780601f10610f9857610100808354040283529160200191610fc3565b820191906000526020600020905b815481529060010190602001808311610fa657829003601f168201915b505050505081526020016003820154815260200160048201548152602001600582015481526020016006820154815250509050806000015181602001518260400151836060015184608001518560a001518660c00151975097509750975097509750975050919395979092949650565b600460205280600052604060002060009150905080600201805461105690613d34565b80601f016020809104026020016040519081016040528092919081815260200182805461108290613d34565b80156110cf5780601f106110a4576101008083540402835291602001916110cf565b820191906000526020600020905b8154815290600101906020018083116110b257829003601f168201915b5050505050908060030154908060040154908060050154908060060154905085565b80600380600881111561110757611106613b76565b5b6003600084815260200190815260200160002060009054906101000a900460ff16600881111561113a57611139613b76565b5b1461117a576040517f08c379a0000000000000000000000000000000000000000000000000000000008152600401611171906140fe565b60405180910390fd5b6000600460008581526020019081526020016000206040518060e00160405290816000820180548060200260200160405190810160405280929190818152602001828054801561121f57602002820191906000526020600020905b8160009054906101000a900473ffffffffffffffffffffffffffffffffffffffff1673ffffffffffffffffffffffffffffffffffffffff16815260200190600101908083116111d5575b50505050508152602001600182018054806020026020016040519081016040528092919081815260200182805480156112ad57602002820191906000526020600020905b8160009054906101000a900473ffffffffffffffffffffffffffffffffffffffff1673ffffffffffffffffffffffffffffffffffffffff1681526020019060010190808311611263575b505050505081526020016002820180546112c690613d34565b80601f01602080910402602001604051908101604052809291908181526020018280546112f290613d34565b801561133f5780601f106113145761010080835404028352916020019161133f565b820191906000526020600020905b81548152906001019060200180831161132257829003601f168201915b5050505050815260200160038201548152602001600482015481526020016005820154815260200160068201548152505090508060c001514211156113b9576040517f08c379a00000000000000000000000000000000000000000000000000000000081526004016113b090614190565b60405180910390fd5b600081600001516000815181106113d3576113d2613d65565b5b602002602001015190508073ffffffffffffffffffffffffffffffffffffffff163373ffffffffffffffffffffffffffffffffffffffff161461144b576040517f08c379a000000000000000000000000000000000000000000000000000000000815260040161144290614222565b60405180910390fd5b6000611468836060015184608001516134cd90919063ffffffff16565b9050600061148460c8856080015161348690919063ffffffff16565b9050600061149b82846134a190919063ffffffff16565b9050803410156114e0576040517f08c379a00000000000000000000000000000000000000000000000000000000081526004016114d7906142b4565b60405180910390fd5b6006600360008a815260200190815260200160002060006101000a81548160ff0219169083600881111561151757611516613b76565b5b02179055507fd73298c59e2f8823f5313441b46ced5bddf204a2d4d72bdd904a6d6785e51ae98860405161154b9190613b5b565b60405180910390a15050505050505050565b806000600881111561157257611571613b76565b5b6003600083815260200190815260200160002060009054906101000a900460ff1660088111156115a5576115a4613b76565b5b14806115f55750600360088111156115c0576115bf613b76565b5b6003600083815260200190815260200160002060009054906101000a900460ff1660088111156115f3576115f2613b76565b5b145b8061164457506006600881111561160f5761160e613b76565b5b6003600083815260200190815260200160002060009054906101000a900460ff16600881111561164257611641613b76565b5b145b611683576040517f08c379a000000000000000000000000000000000000000000000000000000000815260040161167a90613ce5565b60405180910390fd5b6000600460008481526020019081526020016000206040518060e00160405290816000820180548060200260200160405190810160405280929190818152602001828054801561172857602002820191906000526020600020905b8160009054906101000a900473ffffffffffffffffffffffffffffffffffffffff1673ffffffffffffffffffffffffffffffffffffffff16815260200190600101908083116116de575b50505050508152602001600182018054806020026020016040519081016040528092919081815260200182805480156117b657602002820191906000526020600020905b8160009054906101000a900473ffffffffffffffffffffffffffffffffffffffff1673ffffffffffffffffffffffffffffffffffffffff168152602001906001019080831161176c575b505050505081526020016002820180546117cf90613d34565b80601f01602080910402602001604051908101604052809291908181526020018280546117fb90613d34565b80156118485780601f1061181d57610100808354040283529160200191611848565b820191906000526020600020905b81548152906001019060200180831161182b57829003601f168201915b505050505081526020016003820154815260200160048201548152602001600582015481526020016006820154815250509050806000015160008151811061189357611892613d65565b5b602002602001015173ffffffffffffffffffffffffffffffffffffffff163373ffffffffffffffffffffffffffffffffffffffff1614611908576040517f08c379a00000000000000000000000000000000000000000000000000000000081526004016118ff90614346565b60405180910390fd5b6000600881111561191c5761191b613b76565b5b6003600085815260200190815260200160002060009054906101000a900460ff16600881111561194f5761194e613b76565b5b036119e65760003390508073ffffffffffffffffffffffffffffffffffffffff166108fc83606001519081150290604051600060405180830381858888f193505050501580156119a3573d6000803e3d6000fd5b5060016003600086815260200190815260200160002060006101000a81548160ff021916908360088111156119db576119da613b76565b5b021790555050611b8e565b600360088111156119fa576119f9613b76565b5b6003600085815260200190815260200160002060009054906101000a900460ff166008811115611a2d57611a2c613b76565b5b03611a735760046003600085815260200190815260200160002060006101000a81548160ff02191690836008811115611a6957611a68613b76565b5b0217905550611b8d565b60066008811115611a8757611a86613b76565b5b6003600085815260200190815260200160002060009054906101000a900460ff166008811115611aba57611ab9613b76565b5b03611b8c5760003390508073ffffffffffffffffffffffffffffffffffffffff166108fc611b22611af960c8866080015161348690919063ffffffff16565b611b14866060015187608001516134cd90919063ffffffff16565b6134a190919063ffffffff16565b9081150290604051600060405180830381858888f19350505050158015611b4d573d6000803e3d6000fd5b5060046003600086815260200190815260200160002060006101000a81548160ff02191690836008811115611b8557611b84613b76565b5b0217905550505b5b5b600260009054906101000a900473ffffffffffffffffffffffffffffffffffffffff1673ffffffffffffffffffffffffffffffffffffffff16635920108b82604001516040518263ffffffff1660e01b8152600401611bed9190614067565b600060405180830381600087803b158015611c0757600080fd5b505af1158015611c1b573d6000803e3d6000fd5b505050507f25c1c8d9d47e7ff6f5563a94ae2f009d1d4033e5d2c3453208602186310b741e836003600086815260200190815260200160002060009054906101000a900460ff16604051611c70929190614089565b60405180910390a1505050565b8060006008811115611c9257611c91613b76565b5b6003600083815260200190815260200160002060009054906101000a900460ff166008811115611cc557611cc4613b76565b5b1480611d15575060036008811115611ce057611cdf613b76565b5b6003600083815260200190815260200160002060009054906101000a900460ff166008811115611d1357611d12613b76565b5b145b80611d64575060066008811115611d2f57611d2e613b76565b5b6003600083815260200190815260200160002060009054906101000a900460ff166008811115611d6257611d61613b76565b5b145b611da3576040517f08c379a0000000000000000000000000000000000000000000000000000000008152600401611d9a90613ce5565b60405180910390fd5b6000600460008481526020019081526020016000206040518060e001604052908160008201805480602002602001604051908101604052809291908181526020018280548015611e4857602002820191906000526020600020905b8160009054906101000a900473ffffffffffffffffffffffffffffffffffffffff1673ffffffffffffffffffffffffffffffffffffffff1681526020019060010190808311611dfe575b5050505050815260200160018201805480602002602001604051908101604052809291908181526020018280548015611ed657602002820191906000526020600020905b8160009054906101000a900473ffffffffffffffffffffffffffffffffffffffff1673ffffffffffffffffffffffffffffffffffffffff1681526020019060010190808311611e8c575b50505050508152602001600282018054611eef90613d34565b80601f0160208091040260200160405190810160405280929190818152602001828054611f1b90613d34565b8015611f685780601f10611f3d57610100808354040283529160200191611f68565b820191906000526020600020905b815481529060010190602001808311611f4b57829003601f168201915b5050505050815260200160038201548152602001600482015481526020016005820154815260200160068201548152505090508060200151600081518110611fb357611fb2613d65565b5b602002602001015173ffffffffffffffffffffffffffffffffffffffff163373ffffffffffffffffffffffffffffffffffffffff1614612028576040517f08c379a000000000000000000000000000000000000000000000000000000000815260040161201f906143d8565b60405180910390fd5b6000600881111561203c5761203b613b76565b5b6003600085815260200190815260200160002060009054906101000a900460ff16600881111561206f5761206e613b76565b5b03612125576000816000015160008151811061208e5761208d613d65565b5b602002602001015190508073ffffffffffffffffffffffffffffffffffffffff166108fc83606001519081150290604051600060405180830381858888f193505050501580156120e2573d6000803e3d6000fd5b5060026003600086815260200190815260200160002060006101000a81548160ff0219169083600881111561211a57612119613b76565b5b021790555050612479565b6003600881111561213957612138613b76565b5b6003600085815260200190815260200160002060009054906101000a900460ff16600881111561216c5761216b613b76565b5b0361227e57600061218b6002836060015161343e90919063ffffffff16565b9050803410156121d0576040517f08c379a00000000000000000000000000000000000000000000000000000000081526004016121c790614490565b60405180910390fd5b600082600001516000815181106121ea576121e9613d65565b5b602002602001015190508073ffffffffffffffffffffffffffffffffffffffff166108fc839081150290604051600060405180830381858888f1935050505015801561223a573d6000803e3d6000fd5b5060056003600087815260200190815260200160002060006101000a81548160ff0219169083600881111561227257612271613b76565b5b02179055505050612478565b6006600881111561229257612291613b76565b5b6003600085815260200190815260200160002060009054906101000a900460ff1660088111156122c5576122c4613b76565b5b036124775760006122e46002836060015161343e90919063ffffffff16565b90506000612303836060015184608001516134cd90919063ffffffff16565b9050600061234361232260c8866080015161348690919063ffffffff16565b61233585856134a190919063ffffffff16565b6134a190919063ffffffff16565b905082341015612388576040517f08c379a000000000000000000000000000000000000000000000000000000000815260040161237f90614490565b60405180910390fd5b804710156123cb576040517f08c379a00000000000000000000000000000000000000000000000000000000081526004016123c290614522565b60405180910390fd5b600084600001516000815181106123e5576123e4613d65565b5b602002602001015190508073ffffffffffffffffffffffffffffffffffffffff166108fc839081150290604051600060405180830381858888f19350505050158015612435573d6000803e3d6000fd5b5060076003600089815260200190815260200160002060006101000a81548160ff0219169083600881111561246d5761246c613b76565b5b0217905550505050505b5b5b600260009054906101000a900473ffffffffffffffffffffffffffffffffffffffff1673ffffffffffffffffffffffffffffffffffffffff16635920108b82604001516040518263ffffffff1660e01b81526004016124d89190614067565b600060405180830381600087803b1580156124f257600080fd5b505af1158015612506573d6000803e3d6000fd5b505050507f25c1c8d9d47e7ff6f5563a94ae2f009d1d4033e5d2c3453208602186310b741e836003600086815260200190815260200160002060009054906101000a900460ff1660405161255b929190614089565b60405180910390a1505050565b6001600260009054906101000a900473ffffffffffffffffffffffffffffffffffffffff1673ffffffffffffffffffffffffffffffffffffffff1663baf5b911866040518263ffffffff1660e01b81526004016125c59190614067565b602060405180830381865afa1580156125e2573d6000803e3d6000fd5b505050506040513d601f19601f82011682018060405250810190612606919061457b565b60ff1614612649576040517f08c379a00000000000000000000000000000000000000000000000000000000081526004016126409061461a565b60405180910390fd5b8234101561268c576040517f08c379a0000000000000000000000000000000000000000000000000000000008152600401612683906146ac565b60405180910390fd5b818311156126cf576040517f08c379a00000000000000000000000000000000000000000000000000000000081526004016126c690614764565b60405180910390fd5b6000600260009054906101000a900473ffffffffffffffffffffffffffffffffffffffff1673ffffffffffffffffffffffffffffffffffffffff1663e9d0b666866040518263ffffffff1660e01b815260040161272c9190614067565b600060405180830381865afa158015612749573d6000803e3d6000fd5b505050506040513d6000823e3d601f19601f820116820180604052508101906127729190614830565b90506000603c806018856127869190614879565b6127909190614879565b61279a9190614879565b426127a59190613e57565b905060006040518060e0016040528089815260200184815260200188815260200187815260200186815260200142815260200183815250905060016000546127ed9190613e57565b60008190555080600460008054815260200190815260200160002060008201518160000190805190602001906128249291906134f4565b5060208201518160010190805190602001906128419291906134f4565b5060408201518160020190816128579190614a67565b50606082015181600301556080820151816004015560a0820151816005015560c082015181600601559050506000600360008054815260200190815260200160002060006101000a81548160ff021916908360088111156128bb576128ba613b76565b5b02179055507f0ea070c05dd8e6a93e49aca22ea78caccb5da0d7ba7c3ae80a0d14c6a0ca145588846000548a8a8a42896040516128ff989796959493929190614b39565b60405180910390a15050505050505050565b80600080600881111561292757612926613b76565b5b6003600084815260200190815260200160002060009054906101000a900460ff16600881111561295a57612959613b76565b5b1461299a576040517f08c379a0000000000000000000000000000000000000000000000000000000008152600401612991906140fe565b60405180910390fd5b6000600460008581526020019081526020016000206040518060e001604052908160008201805480602002602001604051908101604052809291908181526020018280548015612a3f57602002820191906000526020600020905b8160009054906101000a900473ffffffffffffffffffffffffffffffffffffffff1673ffffffffffffffffffffffffffffffffffffffff16815260200190600101908083116129f5575b5050505050815260200160018201805480602002602001604051908101604052809291908181526020018280548015612acd57602002820191906000526020600020905b8160009054906101000a900473ffffffffffffffffffffffffffffffffffffffff1673ffffffffffffffffffffffffffffffffffffffff1681526020019060010190808311612a83575b50505050508152602001600282018054612ae690613d34565b80601f0160208091040260200160405190810160405280929190818152602001828054612b1290613d34565b8015612b5f5780601f10612b3457610100808354040283529160200191612b5f565b820191906000526020600020905b815481529060010190602001808311612b4257829003601f168201915b5050505050815260200160038201548152602001600482015481526020016005820154815260200160068201548152505090508060c00151421115612bd9576040517f08c379a0000000000000000000000000000000000000000000000000000000008152600401612bd090614c3e565b60405180910390fd5b60008160200151600081518110612bf357612bf2613d65565b5b602002602001015190508073ffffffffffffffffffffffffffffffffffffffff163373ffffffffffffffffffffffffffffffffffffffff1614612c6b576040517f08c379a0000000000000000000000000000000000000000000000000000000008152600401612c6290614cd0565b60405180910390fd5b60003390508073ffffffffffffffffffffffffffffffffffffffff166108fc84606001519081150290604051600060405180830381858888f19350505050158015612cba573d6000803e3d6000fd5b50600380600088815260200190815260200160002060006101000a81548160ff02191690836008811115612cf157612cf0613b76565b5b0217905550600260009054906101000a900473ffffffffffffffffffffffffffffffffffffffff1673ffffffffffffffffffffffffffffffffffffffff166323aff5f584604001516040518263ffffffff1660e01b8152600401612d559190614067565b600060405180830381600087803b158015612d6f57600080fd5b505af1158015612d83573d6000803e3d6000fd5b505050507f388c8a92bccfa98c6f31aaf88a64dd0582b1775314bb3f73c1451357d7c79f4a86604051612db69190613b5b565b60405180910390a1505050505050565b60005481565b60036020528060005260406000206000915054906101000a900460ff1681565b806006806008811115612e0257612e01613b76565b5b6003600084815260200190815260200160002060009054906101000a900460ff166008811115612e3557612e34613b76565b5b14612e75576040517f08c379a0000000000000000000000000000000000000000000000000000000008152600401612e6c906140fe565b60405180910390fd5b6000600460008581526020019081526020016000206040518060e001604052908160008201805480602002602001604051908101604052809291908181526020018280548015612f1a57602002820191906000526020600020905b8160009054906101000a900473ffffffffffffffffffffffffffffffffffffffff1673ffffffffffffffffffffffffffffffffffffffff1681526020019060010190808311612ed0575b5050505050815260200160018201805480602002602001604051908101604052809291908181526020018280548015612fa857602002820191906000526020600020905b8160009054906101000a900473ffffffffffffffffffffffffffffffffffffffff1673ffffffffffffffffffffffffffffffffffffffff1681526020019060010190808311612f5e575b50505050508152602001600282018054612fc190613d34565b80601f0160208091040260200160405190810160405280929190818152602001828054612fed90613d34565b801561303a5780601f1061300f5761010080835404028352916020019161303a565b820191906000526020600020905b81548152906001019060200180831161301d57829003601f168201915b5050505050815260200160038201548152602001600482015481526020016005820154815260200160068201548152505090508060c001514211156130b4576040517f08c379a00000000000000000000000000000000000000000000000000000000081526004016130ab90614d62565b60405180910390fd5b600081602001516000815181106130ce576130cd613d65565b5b602002602001015190508073ffffffffffffffffffffffffffffffffffffffff163373ffffffffffffffffffffffffffffffffffffffff1614613146576040517f08c379a000000000000000000000000000000000000000000000000000000000815260040161313d90614df4565b60405180910390fd5b60006131606032846080015161348690919063ffffffff16565b9050600061317f846060015185608001516134cd90919063ffffffff16565b9050818110156131e257600081836131979190613e23565b9050803410156131dc576040517f08c379a00000000000000000000000000000000000000000000000000000000081526004016131d390614e86565b60405180910390fd5b5061323b565b600082826131f09190613e23565b90503373ffffffffffffffffffffffffffffffffffffffff166108fc829081150290604051600060405180830381858888f19350505050158015613238573d6000803e3d6000fd5b50505b600260009054906101000a900473ffffffffffffffffffffffffffffffffffffffff1673ffffffffffffffffffffffffffffffffffffffff166389e7d8a68560400151866000015160008151811061329657613295613d65565b5b60200260200101516040518363ffffffff1660e01b81526004016132bb929190614eb5565b600060405180830381600087803b1580156132d557600080fd5b505af11580156132e9573d6000803e3d6000fd5b5050505060086003600089815260200190815260200160002060006101000a81548160ff0219169083600881111561332457613323613b76565b5b0217905550600260009054906101000a900473ffffffffffffffffffffffffffffffffffffffff1673ffffffffffffffffffffffffffffffffffffffff16635920108b85604001516040518263ffffffff1660e01b81526004016133889190614067565b600060405180830381600087803b1580156133a257600080fd5b505af11580156133b6573d6000803e3d6000fd5b505050507f610f15d91c8a87f61ec3bdff536db3f7968f81d7d8b11902eb86011143959eda876040516133e99190613b5b565b60405180910390a150505050505050565b80600260006101000a81548173ffffffffffffffffffffffffffffffffffffffff021916908373ffffffffffffffffffffffffffffffffffffffff16021790555050565b60008083036134505760009050613480565b6000828461345e9190614879565b905082848261346d9190613df2565b1461347b5761347a614ee5565b5b809150505b92915050565b60008082846134959190613df2565b90508091505092915050565b60008082846134b09190613e57565b9050838110156134c3576134c2614ee5565b5b8091505092915050565b6000828211156134e0576134df614ee5565b5b81836134ec9190613e23565b905092915050565b82805482825590600052602060002090810192821561356d579160200282015b8281111561356c5782518260006101000a81548173ffffffffffffffffffffffffffffffffffffffff021916908373ffffffffffffffffffffffffffffffffffffffff16021790555091602001919060010190613514565b5b50905061357a919061357e565b5090565b5b8082111561359757600081600090555060010161357f565b5090565b6000604051905090565b600080fd5b600080fd5b6000819050919050565b6135c2816135af565b81146135cd57600080fd5b50565b6000813590506135df816135b9565b92915050565b6000602082840312156135fb576135fa6135a5565b5b6000613609848285016135d0565b91505092915050565b600081519050919050565b600082825260208201905092915050565b6000819050602082019050919050565b600073ffffffffffffffffffffffffffffffffffffffff82169050919050565b60006136698261363e565b9050919050565b6136798161365e565b82525050565b600061368b8383613670565b60208301905092915050565b6000602082019050919050565b60006136af82613612565b6136b9818561361d565b93506136c48361362e565b8060005b838110156136f55781516136dc888261367f565b97506136e783613697565b9250506001810190506136c8565b5085935050505092915050565b600081519050919050565b600082825260208201905092915050565b60005b8381101561373c578082015181840152602081019050613721565b60008484015250505050565b6000601f19601f8301169050919050565b600061376482613702565b61376e818561370d565b935061377e81856020860161371e565b61378781613748565b840191505092915050565b61379b816135af565b82525050565b600060e08201905081810360008301526137bb818a6136a4565b905081810360208301526137cf81896136a4565b905081810360408301526137e38188613759565b90506137f26060830187613792565b6137ff6080830186613792565b61380c60a0830185613792565b61381960c0830184613792565b98975050505050505050565b600060a082019050818103600083015261383f8188613759565b905061384e6020830187613792565b61385b6040830186613792565b6138686060830185613792565b6138756080830184613792565b9695505050505050565b600080fd5b7f4e487b7100000000000000000000000000000000000000000000000000000000600052604160045260246000fd5b6138bc82613748565b810181811067ffffffffffffffff821117156138db576138da613884565b5b80604052505050565b60006138ee61359b565b90506138fa82826138b3565b919050565b600067ffffffffffffffff82111561391a57613919613884565b5b602082029050602081019050919050565b600080fd5b6139398161365e565b811461394457600080fd5b50565b60008135905061395681613930565b92915050565b600061396f61396a846138ff565b6138e4565b905080838252602082019050602084028301858111156139925761399161392b565b5b835b818110156139bb57806139a78882613947565b845260208401935050602081019050613994565b5050509392505050565b600082601f8301126139da576139d961387f565b5b81356139ea84826020860161395c565b91505092915050565b600080fd5b600067ffffffffffffffff821115613a1357613a12613884565b5b613a1c82613748565b9050602081019050919050565b82818337600083830152505050565b6000613a4b613a46846139f8565b6138e4565b905082815260208101848484011115613a6757613a666139f3565b5b613a72848285613a29565b509392505050565b600082601f830112613a8f57613a8e61387f565b5b8135613a9f848260208601613a38565b91505092915050565b600080600080600060a08688031215613ac457613ac36135a5565b5b600086013567ffffffffffffffff811115613ae257613ae16135aa565b5b613aee888289016139c5565b955050602086013567ffffffffffffffff811115613b0f57613b0e6135aa565b5b613b1b88828901613a7a565b9450506040613b2c888289016135d0565b9350506060613b3d888289016135d0565b9250506080613b4e888289016135d0565b9150509295509295909350565b6000602082019050613b706000830184613792565b92915050565b7f4e487b7100000000000000000000000000000000000000000000000000000000600052602160045260246000fd5b60098110613bb657613bb5613b76565b5b50565b6000819050613bc782613ba5565b919050565b6000613bd782613bb9565b9050919050565b613be781613bcc565b82525050565b6000602082019050613c026000830184613bde565b92915050565b6000613c138261365e565b9050919050565b613c2381613c08565b8114613c2e57600080fd5b50565b600081359050613c4081613c1a565b92915050565b600060208284031215613c5c57613c5b6135a5565b5b6000613c6a84828501613c31565b91505092915050565b7f416c6c6f774d6f646966793a205472616e73616374696f6e2063616e2774206160008201527f6c6c6f77206d6f6469666965722e000000000000000000000000000000000000602082015250565b6000613ccf602e8361370d565b9150613cda82613c73565b604082019050919050565b60006020820190508181036000830152613cfe81613cc2565b9050919050565b7f4e487b7100000000000000000000000000000000000000000000000000000000600052602260045260246000fd5b60006002820490506001821680613d4c57607f821691505b602082108103613d5f57613d5e613d05565b5b50919050565b7f4e487b7100000000000000000000000000000000000000000000000000000000600052603260045260246000fd5b7f4e487b7100000000000000000000000000000000000000000000000000000000600052601260045260246000fd5b7f4e487b7100000000000000000000000000000000000000000000000000000000600052601160045260246000fd5b6000613dfd826135af565b9150613e08836135af565b925082613e1857613e17613d94565b5b828204905092915050565b6000613e2e826135af565b9150613e39836135af565b9250828203905081811115613e5157613e50613dc3565b5b92915050565b6000613e62826135af565b9150613e6d836135af565b9250828201905080821115613e8557613e84613dc3565b5b92915050565b7f43616e63656c5472616e73616374696f6e3a2056616c7565206d75737420626560008201527f206772656174657220636f6d70656e736174696f6e20616d6f756e742e000000602082015250565b6000613ee7603d8361370d565b9150613ef282613e8b565b604082019050919050565b60006020820190508181036000830152613f1681613eda565b9050919050565b7f43616e63656c5472616e73616374696f6e3a2056616c7565206d75737420626560008201527f2067726561746572207468616e20636f6d70656e736174696f6e20616d6f756e60208201527f742e000000000000000000000000000000000000000000000000000000000000604082015250565b6000613f9f60428361370d565b9150613faa82613f1d565b606082019050919050565b60006020820190508181036000830152613fce81613f92565b9050919050565b7f43616e63656c5472616e73616374696f6e3a20596f75277265206e6f7420706560008201527f726d697373696f6e2e0000000000000000000000000000000000000000000000602082015250565b600061403160298361370d565b915061403c82613fd5565b604082019050919050565b6000602082019050818103600083015261406081614024565b9050919050565b600060208201905081810360008301526140818184613759565b905092915050565b600060408201905061409e6000830185613792565b6140ab6020830184613bde565b9392505050565b7f4f6e6c7953746174653a20526571756972652073746174652e00000000000000600082015250565b60006140e860198361370d565b91506140f3826140b2565b602082019050919050565b60006020820190508181036000830152614117816140db565b9050919050565b7f5061796d656e743a205472616e73616374696f6e20686173206578706972656460008201527f2e00000000000000000000000000000000000000000000000000000000000000602082015250565b600061417a60218361370d565b91506141858261411e565b604082019050919050565b600060208201905081810360008301526141a98161416d565b9050919050565b7f5061796d656e743a204f6e6c7920726570726573656e746174697665206f662060008201527f6275796572732e00000000000000000000000000000000000000000000000000602082015250565b600061420c60278361370d565b9150614217826141b0565b604082019050919050565b6000602082019050818103600083015261423b816141ff565b9050919050565b7f5061796d656e743a2056616c7565206d7573742062652067726561746572207460008201527f68616e20746f74616c20616d6f756e7400000000000000000000000000000000602082015250565b600061429e60308361370d565b91506142a982614242565b604082019050919050565b600060208201905081810360008301526142cd81614291565b9050919050565b7f427579657243616e63656c5472616e73616374696f6e3a20726571756972652060008201527f726570726573656e746174697665206275796572730000000000000000000000602082015250565b600061433060358361370d565b915061433b826142d4565b604082019050919050565b6000602082019050818103600083015261435f81614323565b9050919050565b7f53656c6c657243616e63656c5472616e73616374696f6e3a207265717569726560008201527f20726570726573656e7461746976652073656c6c657273000000000000000000602082015250565b60006143c260378361370d565b91506143cd82614366565b604082019050919050565b600060208201905081810360008301526143f1816143b5565b9050919050565b7f53656c6c657243616e63656c5472616e73616374696f6e3a2056616c7565206d60008201527f7573742062652067726561746572207468616e2032202a206465706f7369742060208201527f7072696365000000000000000000000000000000000000000000000000000000604082015250565b600061447a60458361370d565b9150614485826143f8565b606082019050919050565b600060208201905081810360008301526144a98161446d565b9050919050565b7f42616c61636520636f6e74726163742061646472657373206e6f7420656e6f7560008201527f6768000000000000000000000000000000000000000000000000000000000000602082015250565b600061450c60228361370d565b9150614517826144b0565b604082019050919050565b6000602082019050818103600083015261453b816144ff565b9050919050565b600060ff82169050919050565b61455881614542565b811461456357600080fd5b50565b6000815190506145758161454f565b92915050565b600060208284031215614591576145906135a5565b5b600061459f84828501614566565b91505092915050565b7f4372656174655472616e73616374696f6e3a205265717569726520737461746560008201527f206f662063657274696669636174652069732041435449564154450000000000602082015250565b6000614604603b8361370d565b915061460f826145a8565b604082019050919050565b60006020820190508181036000830152614633816145f7565b9050919050565b7f4372656174655472616e73616374696f6e3a20526571756972652076616c756560008201527f2067726561746572207468616e206465706f7369742070726963650000000000602082015250565b6000614696603b8361370d565b91506146a18261463a565b604082019050919050565b600060208201905081810360008301526146c581614689565b9050919050565b7f4372656174655472616e73616374696f6e3a204465706f73697420707269636560008201527f206d75737420626520736d616c6c6572207468616e207472616e73666572207060208201527f7269636500000000000000000000000000000000000000000000000000000000604082015250565b600061474e60448361370d565b9150614759826146cc565b606082019050919050565b6000602082019050818103600083015261477d81614741565b9050919050565b60008151905061479381613930565b92915050565b60006147ac6147a7846138ff565b6138e4565b905080838252602082019050602084028301858111156147cf576147ce61392b565b5b835b818110156147f857806147e48882614784565b8452602084019350506020810190506147d1565b5050509392505050565b600082601f8301126148175761481661387f565b5b8151614827848260208601614799565b91505092915050565b600060208284031215614846576148456135a5565b5b600082015167ffffffffffffffff811115614864576148636135aa565b5b61487084828501614802565b91505092915050565b6000614884826135af565b915061488f836135af565b925082820261489d816135af565b915082820484148315176148b4576148b3613dc3565b5b5092915050565b60008190508160005260206000209050919050565b60006020601f8301049050919050565b600082821b905092915050565b60006008830261491d7fffffffffffffffffffffffffffffffffffffffffffffffffffffffffffffffff826148e0565b61492786836148e0565b95508019841693508086168417925050509392505050565b6000819050919050565b600061496461495f61495a846135af565b61493f565b6135af565b9050919050565b6000819050919050565b61497e83614949565b61499261498a8261496b565b8484546148ed565b825550505050565b600090565b6149a761499a565b6149b2818484614975565b505050565b5b818110156149d6576149cb60008261499f565b6001810190506149b8565b5050565b601f821115614a1b576149ec816148bb565b6149f5846148d0565b81016020851015614a04578190505b614a18614a10856148d0565b8301826149b7565b50505b505050565b600082821c905092915050565b6000614a3e60001984600802614a20565b1980831691505092915050565b6000614a578383614a2d565b9150826002028217905092915050565b614a7082613702565b67ffffffffffffffff811115614a8957614a88613884565b5b614a938254613d34565b614a9e8282856149da565b600060209050601f831160018114614ad15760008415614abf578287015190505b614ac98582614a4b565b865550614b31565b601f198416614adf866148bb565b60005b82811015614b0757848901518255600182019150602085019450602081019050614ae2565b86831015614b245784890151614b20601f891682614a2d565b8355505b6001600288020188555050505b505050505050565b6000610100820190508181036000830152614b54818b6136a4565b90508181036020830152614b68818a6136a4565b9050614b776040830189613792565b8181036060830152614b898188613759565b9050614b986080830187613792565b614ba560a0830186613792565b614bb260c0830185613792565b614bbf60e0830184613792565b9998505050505050505050565b7f4163636570745472616e73616374696f6e3a205472616e73616374696f6e206860008201527f6173206578706972656400000000000000000000000000000000000000000000602082015250565b6000614c28602a8361370d565b9150614c3382614bcc565b604082019050919050565b60006020820190508181036000830152614c5781614c1b565b9050919050565b7f4163636570745472616e73616374696f6e3a207265717569726520726570726560008201527f73656e746174697665206f66206f776e65720000000000000000000000000000602082015250565b6000614cba60328361370d565b9150614cc582614c5e565b604082019050919050565b60006020820190508181036000830152614ce981614cad565b9050919050565b7f436f6e6669726d5472616e73616374696f6e3a205472616e73616374696f6e2060008201527f68617320657870697265642e0000000000000000000000000000000000000000602082015250565b6000614d4c602c8361370d565b9150614d5782614cf0565b604082019050919050565b60006020820190508181036000830152614d7b81614d3f565b9050919050565b7f436f6e6669726d5472616e73616374696f6e3a2052657175697265207265707260008201527f6573656e746174697665206f662073656c6c6572732e00000000000000000000602082015250565b6000614dde60368361370d565b9150614de982614d82565b604082019050919050565b60006020820190508181036000830152614e0d81614dd1565b9050919050565b7f436f6e6669726d5472616e73616374696f6e3a2056616c7565206d757374206260008201527f65206772656174657220636f73747320696e6375727265642e00000000000000602082015250565b6000614e7060398361370d565b9150614e7b82614e14565b604082019050919050565b60006020820190508181036000830152614e9f81614e63565b9050919050565b614eaf8161365e565b82525050565b60006040820190508181036000830152614ecf8185613759565b9050614ede6020830184614ea6565b9392505050565b7f4e487b7100000000000000000000000000000000000000000000000000000000600052600160045260246000fdfea2646970667358221220f44ba51e407cb814b1472449bd4e3e4ccf503e8c109d489cf00f05ef694f6d6464736f6c63430008180033",
  "linkReferences": {},
  "deployedLinkReferences": {}
}