{
  "_format": "hh-sol-artifact-1",
  "contractName": "AccessManager",
  "sourceName": "contracts/AccessManager.sol",
  "abi": [
    {
      "inputs": [],
      "stateMutability": "nonpayable",
      "type": "constructor"
    },
    {
      "anonymous": false,
      "inputs": [
        {
          "indexed": true,
          "internalType": "address",
          "name": "account",
          "type": "address"
        },
        {
          "indexed": false,
          "internalType": "string",
          "name": "role",
          "type": "string"
        }
      ],
      "name": "RoleGranted",
      "type": "event"
    },
    {
      "anonymous": false,
      "inputs": [
        {
          "indexed": true,
          "internalType": "address",
          "name": "account",
          "type": "address"
        },
        {
          "indexed": false,
          "internalType": "string",
          "name": "role",
          "type": "string"
        }
      ],
      "name": "RoleRevoked",
      "type": "event"
    },
    {
      "inputs": [
        {
          "internalType": "address",
          "name": "account",
          "type": "address"
        }
      ],
      "name": "grantNotaryRole",
      "outputs": [],
      "stateMutability": "nonpayable",
      "type": "function"
    },
    {
      "inputs": [
        {
          "internalType": "address",
          "name": "account",
          "type": "address"
        }
      ],
      "name": "hasNotaryRole",
      "outputs": [
        {
          "internalType": "bool",
          "name": "",
          "type": "bool"
        }
      ],
      "stateMutability": "view",
      "type": "function"
    },
    {
      "inputs": [
        {
          "internalType": "address",
          "name": "",
          "type": "address"
        }
      ],
      "name": "isAdmin",
      "outputs": [
        {
          "internalType": "bool",
          "name": "",
          "type": "bool"
        }
      ],
      "stateMutability": "view",
      "type": "function"
    },
    {
      "inputs": [
        {
          "internalType": "address",
          "name": "",
          "type": "address"
        }
      ],
      "name": "isNotary",
      "outputs": [
        {
          "internalType": "bool",
          "name": "",
          "type": "bool"
        }
      ],
      "stateMutability": "view",
      "type": "function"
    },
    {
      "inputs": [
        {
          "internalType": "address",
          "name": "",
          "type": "address"
        }
      ],
      "name": "isUser",
      "outputs": [
        {
          "internalType": "bool",
          "name": "",
          "type": "bool"
        }
      ],
      "stateMutability": "view",
      "type": "function"
    },
    {
      "inputs": [
        {
          "internalType": "address",
          "name": "account",
          "type": "address"
        }
      ],
      "name": "revokeNotaryRole",
      "outputs": [],
      "stateMutability": "nonpayable",
      "type": "function"
    }
  ],
  "bytecode": "0x608060405234801561001057600080fd5b50600160008073f39fd6e51aad88f6f4ce6ab8827279cfffb9226673ffffffffffffffffffffffffffffffffffffffff1673ffffffffffffffffffffffffffffffffffffffff16815260200190815260200160002060006101000a81548160ff02191690831515021790555073f39fd6e51aad88f6f4ce6ab8827279cfffb9226673ffffffffffffffffffffffffffffffffffffffff167fb710f7d3e79cb091613cfea70444ea824ad23f2b1297bdea427bc6f097e346a86040516100d490610121565b60405180910390a2610152565b60006100ee600583610141565b91507f41444d494e0000000000000000000000000000000000000000000000000000006000830152602082019050919050565b6000602082019050818103600083015261013a816100e1565b9050919050565b600082825260208201905092915050565b6106f4806101616000396000f3fe608060405234801561001057600080fd5b50600436106100625760003560e01c80630ed415811461006757806324d7806c146100975780634209fff1146100c7578063e72bbde9146100f7578063f13eed9714610113578063f8f76e2314610143575b600080fd5b610081600480360381019061007c91906104e5565b61015f565b60405161008e91906105dd565b60405180910390f35b6100b160048036038101906100ac91906104e5565b6101b5565b6040516100be91906105dd565b60405180910390f35b6100e160048036038101906100dc91906104e5565b6101d5565b6040516100ee91906105dd565b60405180910390f35b610111600480360381019061010c91906104e5565b6101f5565b005b61012d600480360381019061012891906104e5565b61037e565b60405161013a91906105dd565b60405180910390f35b61015d600480360381019061015891906104e5565b61039e565b005b6000600160008373ffffffffffffffffffffffffffffffffffffffff1673ffffffffffffffffffffffffffffffffffffffff16815260200190815260200160002060009054906101000a900460ff169050919050565b60006020528060005260406000206000915054906101000a900460ff1681565b60026020528060005260406000206000915054906101000a900460ff1681565b6000803373ffffffffffffffffffffffffffffffffffffffff1673ffffffffffffffffffffffffffffffffffffffff16815260200190815260200160002060009054906101000a900460ff16610280576040517f08c379a000000000000000000000000000000000000000000000000000000000815260040161027790610638565b60405180910390fd5b60018060008373ffffffffffffffffffffffffffffffffffffffff1673ffffffffffffffffffffffffffffffffffffffff16815260200190815260200160002060006101000a81548160ff0219169083151502179055506000600260008373ffffffffffffffffffffffffffffffffffffffff1673ffffffffffffffffffffffffffffffffffffffff16815260200190815260200160002060006101000a81548160ff0219169083151502179055508073ffffffffffffffffffffffffffffffffffffffff167fb710f7d3e79cb091613cfea70444ea824ad23f2b1297bdea427bc6f097e346a860405161037390610618565b60405180910390a250565b60016020528060005260406000206000915054906101000a900460ff1681565b6000803373ffffffffffffffffffffffffffffffffffffffff1673ffffffffffffffffffffffffffffffffffffffff16815260200190815260200160002060009054906101000a900460ff16610429576040517f08c379a0000000000000000000000000000000000000000000000000000000008152600401610420906105f8565b60405180910390fd5b6000600160008373ffffffffffffffffffffffffffffffffffffffff1673ffffffffffffffffffffffffffffffffffffffff16815260200190815260200160002060006101000a81548160ff0219169083151502179055508073ffffffffffffffffffffffffffffffffffffffff167f9f43a01c0d4ff5aff09b3b9b472df707ceefd3f948f8942f10fa1562a89213046040516104c590610618565b60405180910390a250565b6000813590506104df816106a7565b92915050565b6000602082840312156104f757600080fd5b6000610505848285016104d0565b91505092915050565b6105178161067b565b82525050565b600061052a601c83610658565b91507f4f6e6c792061646d696e732063616e207265766f6b6520726f6c6573000000006000830152602082019050919050565b600061056a600683610658565b91507f4e4f5441525900000000000000000000000000000000000000000000000000006000830152602082019050919050565b60006105aa601b83610658565b91507f4f6e6c792061646d696e732063616e206772616e7420726f6c657300000000006000830152602082019050919050565b60006020820190506105f2600083018461050e565b92915050565b600060208201905081810360008301526106118161051d565b9050919050565b600060208201905081810360008301526106318161055d565b9050919050565b600060208201905081810360008301526106518161059d565b9050919050565b600082825260208201905092915050565b600061067482610687565b9050919050565b60008115159050919050565b600073ffffffffffffffffffffffffffffffffffffffff82169050919050565b6106b081610669565b81146106bb57600080fd5b5056fea2646970667358221220fb44e08155d33e5fc8e3dc038b29195260df6ba0d637cb9226911f7583fa542c64736f6c63430008000033",
  "linkReferences": {},
  "deployedLinkReferences": {}
}