{
  "_format": "hh-sol-artifact-1",
  "contractName": "AccessManager",
  "sourceName": "contracts/AccessManager.sol",
  "abi": [
    {
      "inputs": [],
      "stateMutability": "nonpayable",
      "type": "constructor"
    },
    {
      "anonymous": false,
      "inputs": [
        {
          "indexed": true,
          "internalType": "address",
          "name": "account",
          "type": "address"
        },
        {
          "indexed": false,
          "internalType": "string",
          "name": "role",
          "type": "string"
        }
      ],
      "name": "RoleGranted",
      "type": "event"
    },
    {
      "anonymous": false,
      "inputs": [
        {
          "indexed": true,
          "internalType": "address",
          "name": "account",
          "type": "address"
        },
        {
          "indexed": false,
          "internalType": "string",
          "name": "role",
          "type": "string"
        }
      ],
      "name": "RoleRevoked",
      "type": "event"
    },
    {
      "inputs": [
        {
          "internalType": "address",
          "name": "account",
          "type": "address"
        }
      ],
      "name": "grantNotaryRole",
      "outputs": [],
      "stateMutability": "nonpayable",
      "type": "function"
    },
    {
      "inputs": [
        {
          "internalType": "address",
          "name": "account",
          "type": "address"
        }
      ],
      "name": "hasNotaryRole",
      "outputs": [
        {
          "internalType": "bool",
          "name": "",
          "type": "bool"
        }
      ],
      "stateMutability": "view",
      "type": "function"
    },
    {
      "inputs": [
        {
          "internalType": "address",
          "name": "",
          "type": "address"
        }
      ],
      "name": "isAdmin",
      "outputs": [
        {
          "internalType": "bool",
          "name": "",
          "type": "bool"
        }
      ],
      "stateMutability": "view",
      "type": "function"
    },
    {
      "inputs": [
        {
          "internalType": "address",
          "name": "",
          "type": "address"
        }
      ],
      "name": "isNotary",
      "outputs": [
        {
          "internalType": "bool",
          "name": "",
          "type": "bool"
        }
      ],
      "stateMutability": "view",
      "type": "function"
    },
    {
      "inputs": [
        {
          "internalType": "address",
          "name": "",
          "type": "address"
        }
      ],
      "name": "isUser",
      "outputs": [
        {
          "internalType": "bool",
          "name": "",
          "type": "bool"
        }
      ],
      "stateMutability": "view",
      "type": "function"
    },
    {
      "inputs": [
        {
          "internalType": "address",
          "name": "account",
          "type": "address"
        }
      ],
      "name": "revokeNotaryRole",
      "outputs": [],
      "stateMutability": "nonpayable",
      "type": "function"
    }
  ],
  "bytecode": "0x608060405234801561001057600080fd5b5060016000803373ffffffffffffffffffffffffffffffffffffffff1673ffffffffffffffffffffffffffffffffffffffff16815260200190815260200160002060006101000a81548160ff0219169083151502179055503373ffffffffffffffffffffffffffffffffffffffff167fb710f7d3e79cb091613cfea70444ea824ad23f2b1297bdea427bc6f097e346a86040516100ac90610116565b60405180910390a2610136565b600082825260208201905092915050565b7f41444d494e000000000000000000000000000000000000000000000000000000600082015250565b60006101006005836100b9565b915061010b826100ca565b602082019050919050565b6000602082019050818103600083015261012f816100f3565b9050919050565b610721806101456000396000f3fe608060405234801561001057600080fd5b50600436106100625760003560e01c80630ed415811461006757806324d7806c146100975780634209fff1146100c7578063e72bbde9146100f7578063f13eed9714610113578063f8f76e2314610143575b600080fd5b610081600480360381019061007c9190610533565b61015f565b60405161008e919061057b565b60405180910390f35b6100b160048036038101906100ac9190610533565b6101b5565b6040516100be919061057b565b60405180910390f35b6100e160048036038101906100dc9190610533565b6101d5565b6040516100ee919061057b565b60405180910390f35b610111600480360381019061010c9190610533565b6101f5565b005b61012d60048036038101906101289190610533565b61037e565b60405161013a919061057b565b60405180910390f35b61015d60048036038101906101589190610533565b61039e565b005b6000600160008373ffffffffffffffffffffffffffffffffffffffff1673ffffffffffffffffffffffffffffffffffffffff16815260200190815260200160002060009054906101000a900460ff169050919050565b60006020528060005260406000206000915054906101000a900460ff1681565b60026020528060005260406000206000915054906101000a900460ff1681565b6000803373ffffffffffffffffffffffffffffffffffffffff1673ffffffffffffffffffffffffffffffffffffffff16815260200190815260200160002060009054906101000a900460ff16610280576040517f08c379a0000000000000000000000000000000000000000000000000000000008152600401610277906105f3565b60405180910390fd5b60018060008373ffffffffffffffffffffffffffffffffffffffff1673ffffffffffffffffffffffffffffffffffffffff16815260200190815260200160002060006101000a81548160ff0219169083151502179055506000600260008373ffffffffffffffffffffffffffffffffffffffff1673ffffffffffffffffffffffffffffffffffffffff16815260200190815260200160002060006101000a81548160ff0219169083151502179055508073ffffffffffffffffffffffffffffffffffffffff167fb710f7d3e79cb091613cfea70444ea824ad23f2b1297bdea427bc6f097e346a86040516103739061065f565b60405180910390a250565b60016020528060005260406000206000915054906101000a900460ff1681565b6000803373ffffffffffffffffffffffffffffffffffffffff1673ffffffffffffffffffffffffffffffffffffffff16815260200190815260200160002060009054906101000a900460ff16610429576040517f08c379a0000000000000000000000000000000000000000000000000000000008152600401610420906106cb565b60405180910390fd5b6000600160008373ffffffffffffffffffffffffffffffffffffffff1673ffffffffffffffffffffffffffffffffffffffff16815260200190815260200160002060006101000a81548160ff0219169083151502179055508073ffffffffffffffffffffffffffffffffffffffff167f9f43a01c0d4ff5aff09b3b9b472df707ceefd3f948f8942f10fa1562a89213046040516104c59061065f565b60405180910390a250565b600080fd5b600073ffffffffffffffffffffffffffffffffffffffff82169050919050565b6000610500826104d5565b9050919050565b610510816104f5565b811461051b57600080fd5b50565b60008135905061052d81610507565b92915050565b600060208284031215610549576105486104d0565b5b60006105578482850161051e565b91505092915050565b60008115159050919050565b61057581610560565b82525050565b6000602082019050610590600083018461056c565b92915050565b600082825260208201905092915050565b7f4f6e6c792061646d696e732063616e206772616e7420726f6c65730000000000600082015250565b60006105dd601b83610596565b91506105e8826105a7565b602082019050919050565b6000602082019050818103600083015261060c816105d0565b9050919050565b7f4e4f544152590000000000000000000000000000000000000000000000000000600082015250565b6000610649600683610596565b915061065482610613565b602082019050919050565b600060208201905081810360008301526106788161063c565b9050919050565b7f4f6e6c792061646d696e732063616e207265766f6b6520726f6c657300000000600082015250565b60006106b5601c83610596565b91506106c08261067f565b602082019050919050565b600060208201905081810360008301526106e4816106a8565b905091905056fea2646970667358221220598ef9657eca14b725de290f14a447159202af8e08a3719a32054abe4f8b8ce364736f6c63430008180033",
  "linkReferences": {},
  "deployedLinkReferences": {}
}